:020000040800F2
:10680000586E00204D6900080D9200082391000881
:106810000000000000000000000000000000000078
:10682000000000000000000000000000C595000806
:1068300000000000000000000B6900082996000815
:106840005F6900085F6900085F6900085F69000808
:106850005F6900085F6900085F6900085F690008F8
:1068600099B200085F6900085F6900085F69000865
:106870005F6900085F6900085F6900085F690008D8
:106880005F6900085F6900085F6900085F690008C8
:10689000B1960008C1960008D19600085F6900080B
:1068A0005F6900085F6900085F6900085F690008A8
:1068B0005F6900085F6900085F6900080448854651
:1068C00000F0D6F80048004717C10008C046C0468F
:1068D000586E0020084B19680868203080F309883A
:1068E000022080F31488BFF36F8F3FBCAE4608BC14
:1068F00004BC62B618470000C4000020EFF310800B
:1069000072B6704780F310887047EFF309800E4B22
:106910001A6820381060F0C044464D4656465F461F
:10692000F0C008B572B606F0E9FF62B60CBC11689B
:1069300008681030F0C8A046A946B246BB4680F3AE
:1069400009882038F0C81847C40000200448804750
:1069500004480047FEE7FEE7FEE7FEE7FEE7FEE746
:10696000AF960008BD68000830B50B460146002010
:106970002022012409E00D46D5409D4205D31D4645
:106980009540491B2546954040191546521E002D3D
:10699000F1DC30BD03460B439B0703D009E008C977
:1069A000121F08C0042AFAD203E00B780370401CBF
:1069B000491C521EF9D27047D2B201E00270401C4D
:1069C000491EFBD270470022F6E710B513460A466F
:1069D00004461946FFF7F0FF204610BD421C01781F
:1069E000401C0029FBD1801A70470321001D401E66
:1069F000037812021A43491EF9D510467047034620
:106A000003220870000A491C521EFAD51846704726
:106A1000F0B51FB40646002082B00546402401911F
:106A200000901BE0019922460F46304600F042F8E4
:106A3000049A059B801A994110D3104619462246A4
:106A400000F028F8361A8F410197224601200021D4
:106A5000009F00F01FF838184D4100902046641E3A
:106A60000028DFDC019B00982946324607B0F0BDC4
:106A7000064C0125064E05E0E36807CC2B430C3C91
:106A800098471034B442F7D3FFF71CFFBCE7000867
:106A9000DCE7000810B5202A04DB0146203A9140CB
:106AA000002010BD914020239C1A0346E340194367
:106AB000904010BD10B5202A04DB0846203AD04093
:106AC000002110BD0B46D340D0402024A21A914093
:106AD0000843194610BD70B58C180578401C6B072B
:106AE0005B0F01D10378401C2A1106D10278401CAB
:106AF00003E006780E70401C491C5B1EF9D12B0781
:106B000005D40023521E0DD40B70491CFAE70378FC
:106B1000401CCB1A921C03E01D780D70491C5B1CB5
:106B2000521EF9D5A142D8D3002070BD01460A6893
:106B30000020002A02D0104612680A607047002028
:106B40007047000010B509480949406D80004018A1
:106B50000521C9014018006CFF30FF300230416848
:106B60000448C06805F0AAFB002010BD540A0020AC
:106B7000D40700206400002010B5064800210170F1
:106B8000C06805F023FB0146034803F089F80020A4
:106B900010BD000064000020D40700201CB5154C77
:106BA0000246A068009209680191EFF3058100296F
:106BB00005D000231A46694607F019F804E00023BF
:106BC0001A46694606F087FFE06805F0C9FB002811
:106BD0000BD00021E06805F0F9FA0146064803F001
:106BE0005FF8054803F008F802E0A06905F0D2FC60
:106BF00000201CBD64000020D407002010B503480D
:106C0000406905F0C7FC002010BD000064000020B2
:106C10008369C26900219A4205D241698368514360
:106C2000C918521CC2610846704772B6FEE70000E0
:106C300030B51A4C3523026817491B01A24200D116
:106C400017498032016414681F252D04AC43858EDA
:106C50002D042C4314600A4670324264026880326C
:106C600014680F252D06AC43058F2D062C431460A8
:106C70000A46B0328264D832C264132252018A18A2
:106C800002654F22D2008A1842650022C81800E02F
:106C900004C18142FCD330BD00B400400068004014
:106CA00050B70040F0B58D680C692C4360C90839B5
:106CB000002E16D00126B60735432C438E69CD69C8
:106CC0000F8C35434E693F063E4335438E89406DF8
:106CD0003604354348267343C01830C000230B4F99
:106CE0000EE0AD04E9E7D418E678D55C3606354306
:106CF000A6786478360424022643354320C01B1D41
:106D0000CC683C5D9C42EED8F0BD0000BCE60008BB
:106D1000F7B55C22125CCB0582B00193012A08D042
:106D2000022A06D0016E022211430166012005B03D
:106D3000F0BD0668B26DCB0400930B049C460B02B9
:106D40004F078D068C039E46002F01D0D7071BD01E
:106D50006F0F01D0970717D5019F7F0F01D05707FD
:106D600012D5009F3F0F01D017070DD563465F0F67
:106D700001D0D70608D5A70F01D0970604D57346D2
:106D80009F0E05D0570603D4F76D01231F43F76507
:106D90004B0701D0D3071BD16B0F01D0930717D43A
:106DA000019B5B0F01D0530712D4009B1B0F01D036
:106DB00013070DD463465B0F01D0D30608D4A30F8D
:106DC00001D0930604D473469B0E06D0520604D518
:106DD0000268D36D02242343D3650A0605D50268F1
:106DE0008032D36D049C2343D365CA0505D5026860
:106DF0008032136E049C234313660068426D0A437D
:106E00004265002093E770B504464030007F0228B9
:106E100002D0206E082107E020688030436C9B027E
:106E200006D5206E0121490208432066012070BD6D
:106E3000406C8003850F2B462046FFF733FF01206F
:106E40002168A8408031C864A065002070BD10B5DD
:106E50005C22125C012A07D0022A05D0016E0222B0
:106E600011430166012010BD0A68002A0ED00A7B7A
:106E70000B6952071A430B7A4C6949689B07406CAF
:106E80002343C90040180CC0002010BD0B7A4A698A
:106E90009B071A430B7B0C8ADB06240449682343B7
:106EA000006C1A43890040180260EDE730B55C259C
:106EB0002D5C039C012D05D0016E04221143016657
:106EC000012030BD0901920011435A0011430068AE
:106ED0002143803002689209920111430160002031
:106EE00030BD5C231B5C012B05D0016E04221143D5
:106EF0000166012070470902006811438164002087
:106F0000704710B504000ED000F0A3FB2068C16DDF
:106F100089088900C165204600F0E2FA0020206659
:106F20004034207710BD012010BD30B55C22125CCA
:106F30000224012A06D0022A04D0016E21430166F0
:106F4000012030BD0268536D8B4353650B06002250
:106F5000002B02DA03688033DA65C90502D50168BF
:106F600080310A6603685A6D996D550701D0CD07C7
:106F700025D095066D0F01D08D071CD5D5056D0F59
:106F800001D04D0717D5D5042D0F01D00D0712D50F
:106F900015046D0F01D0CD060DD59503AD0F01D0B1
:106FA0008D0608D51502AD0E01D04D0603D5DD6D59
:106FB0006D086D00DD65530701D0CB0721D1930625
:106FC0005B0F01D08B071CD4D3055B0F01D04B079F
:106FD00017D4D3041B0F01D00B0712D413045B0F7B
:106FE00001D0CB060DD493039B0F01D08B0608D4A0
:106FF0001202920E01D0490603D40068C16DA1436C
:10700000C165002030BD5C21095C012905D0016EFD
:10701000042211430166012070470068C168012203
:10702000D2051143C16000207047000010B504462E
:10703000006E01214905884203D0206E4900884234
:1070400009D106498868002805D0401E88600121C2
:1070500003A004F0ADFF0020206610BDCC0100208D
:10706000070000000122D204914204D10068816926
:1070700049084900816170470068406C4207520F1F
:107080000A604205520F4A60182202408A60820656
:10709000D20FCA604206D20F0A610206D20F4A61BD
:1070A0000205D20F8A61C204D20FCA618204D20FD4
:1070B0000A624204D20F4002400E4A6288620020F7
:1070C00070470000F0B59C465C231B5C022B03D08C
:1070D000016E0822114358E0FF240134036840295F
:1070E0003FD080339D692D074DD09C699D69A405D3
:1070F000A40FED0105D51B68DB0502D5641CA407B0
:10710000A40FC56C48236343ED1801262B68B6070E
:10711000334053602B683BD0DB00DB081360012653
:107120002B687607334093602B687612DB0FDB0702
:107130001361AB889BB2D3616B681B031B0FD360D9
:107140006B68334053616B687600334093616B68C2
:1071500000265B005B0E13626B68DB0F0835536221
:107160001DE080331D692D070DD01C691D69A40524
:10717000A40FED0105D51B689B0502D5641CA4076F
:10718000A40F856CBEE7016E214301660120F0BDAE
:10719000DB005B0DC2E7AF5D63469F55761C074F72
:1071A000D368FB5CB342F6D80068402903D0803036
:1071B000C4610020F0BD80304461FAE7BCE60008FD
:1071C00000688030406C4007400F70477047F0B552
:1071D000044600688BB0016D072292021140426D97
:1071E0000A400692016D4A07416D520F1140059108
:1071F000016D38221140426D0A400492016DF12266
:107200001204476D11400F40016D072252041140D6
:10721000426D0A400292456D016DCE43710607D45E
:10722000E943490604D4402101652046FFF7CEFF1B
:10723000F0050ED4E843C0050BD420680246803028
:10724000836D016EFF20194001301065204600F06B
:1072500042FA0698002805D021680865204606995C
:1072600000F04AFA0598002805D0216808652046F4
:10727000059900F0A9F90498002805D0216808654F
:107280002046049900F0CEF9B00509D4E843800502
:1072900006D40120216840020865204600F02DFA3E
:1072A00030060DD4E84300060AD420680246803038
:1072B000436DC16D194080201065204600F00CFA26
:1072C000B00409D4E843800406D4012021684003B7
:1072D0000865204600F0FEF9300409D4E8430004B4
:1072E00006D401202168C0030865204600F0F1F9AA
:1072F00070040AD4E843400407D4012021688003C5
:107300000865206E8021084320660298002805D079
:107310002168086520460299FFF7A4FE002F04D0DB
:1073200020680765206E38432066206E002802D052
:107330002046FFF77BFE0BB0F0BD0000F8B504005F
:1073400005D025464035287F002802D006E00120E0
:10735000F8BD00206877204600F0DEF820688169DB
:1073600010229143816100F0FBFA0746012604E0F8
:1073700000F0F6FAC01B0A2810D8206880690007C0
:10738000F6D4206881693143816100F0E9FA07464B
:107390000AE000F0E5FAC01B0A2805D9206E304348
:1073A000206603202877D2E720688069C007F0D0E4
:1073B0002068816902221143816147482168814226
:1073C00002D1464960680860207C4021012820687D
:1073D00082693AD00A438261607C012189030128D5
:1073E0002068826933D08A438261A07C012109032D
:1073F0000128206882692CD00A438261216888694B
:10740000032212029043A2681043886120688169B8
:10741000A4229143816121680A69102082430A6194
:10742000E168012917D000291DD02022022916D099
:1074300021688B6980273B438B6121680B6903437B
:107440000B61E06803280AD00DE08A43C3E70A43D2
:10745000CAE78A43D1E720688169042201E02068F5
:10746000816911438161207E7F21400649064018D1
:10747000E1690902FF3901390843216A491E0843BD
:10748000A18A0A0401210904521A10432268D0611A
:107490000320A2680002824210D1E26AA06A1202AE
:1074A000FF3A401E013A1043226B1201103A10437A
:1074B000A28C1204511A08432168C86020688030E9
:1074C000016CE26B114301642046FFF7B1FB002021
:1074D000A06520662E77F8BD00640040006500407E
:1074E00010B50068094988420FD10948C16B821460
:1074F0009143C16303210902064800F0FFF81520FB
:1075000000F0C8FA162000F0C5FA10BD0064004073
:10751000001002400004005010B59AB00446142137
:1075200013A8FFF750FA4C216846FFF74CFA22499E
:10753000206888423ED10120400600240090129429
:10754000684601F05BF8002801D0FFF76EFB1B488E
:10755000C26B81140A43C263C26B0A401892426B29
:1075600002210A434263406B13AA0840189003208B
:10757000000213C203201690179013A9104800F0C0
:107580002FF9104801688200114301600168C200B0
:107590001143016000220321152000F097FA152005
:1075A00000F088FA00220321162000F08FFA16203E
:1075B00000F080FA1AB010BD0064004000100240D4
:1075C000000400500000014030B505469BB0C807DC
:1075D00018D0134C0021606904F0F8FD1A90031EC6
:1075E00012D01A46403240212846FFF76BFD6069F1
:1075F00004F0B6FE00280ED000231A461AA920690E
:1076000006F0F5FA1BB030BD6B4610AA40212846A3
:10761000FFF758FDF6E71A99606904F04FFEF1E7AD
:10762000CC0100207047014640310A7F012A05D075
:10763000016E0422114301660120704702220A777D
:1076400001688A69520852008A6100210166084671
:107650007047F8B5054604464035287F022804D017
:10766000206E08210843206612E020688169012607
:107670003143816100F074F907460BE000F070F9C6
:10768000C01B0A2806D9206E3043206603202877C5
:107690000120F8BD20688069C007EFD020688169AB
:1076A00010229143816100F05BF9074604E000F08D
:1076B00057F9C01B0A28E6D8206880690007F6D46D
:1076C000206881690222114381610020A0652E7724
:1076D000F8BD70477047704710B5054881680029AC
:1076E00001D0491E8160012102A004F061FC10BD9F
:1076F000CC0100200D00000070477047F0B500235A
:107700005FE001249C4022460A4059D09E082F4D3C
:10771000B60075192F6EAC469D07EE0E0F25B540CD
:10772000AE463D4005273F07B84201D1002714E08F
:10773000274FB84201D101270FE0264FB84201D1AF
:1077400002270AE0244FB84201D1032705E0234F66
:10775000B84201D1042700E00527B740AF4214D159
:107760001A4E803635689543356075689543756067
:10777000164E756895437560356895433560654666
:107780002D6E724695436246156605685E000322BB
:10779000B24015430560DD08AD002D182E6AAC46D9
:1077A0005D07EF0E0F25BD40AE4365462E6285682E
:1077B000954385604568A5434560C4689443C460AB
:1077C0005B1C0A46DA409CD1F0BD00000018024064
:1077D0000004005000080050000C00500010005041
:1077E000F0B5002303249DE001259D402A4072D07E
:1077F0000E79B607B60F012E01D0022E16D186687B
:107800002746B4465E00B646B7406646BE43B44619
:10781000CF687646B7406646374387604668AE43D2
:107820000D79ED06ED0F9D40354345600D79ED4333
:10783000AD0708D0C5685F002646BE40B5438E68D8
:10784000BE402E43C6600D79AD07AD0F022D0ED19F
:10785000DD08AD002D18AC462D6A5E07F60E0F2729
:10786000B740BD430F69B7402F4365462F62056897
:107870005F002646BE40B5430E79B607B60FBE4040
:107880002E4306604D68AD03AD0F4AD09E08284DCB
:10789000B6007519AC462D6E9E07F60E0F27B74041
:1078A000BD4305273F07B84201D1002715E0214F0E
:1078B000B84201D1012710E01F4FB84201D1022781
:1078C0000BE01E4FB84201D1032706E01C4FB8421F
:1078D00002D1042701E024E00527B7402F43144DCF
:1078E000664637662D684E689543F60200D5154307
:1078F0000F4F3D607D684E689543B60200D5154335
:107900007D600B4E803675684F689543BF0300D588
:107910001543756035684F689543FF0300D51543DF
:1079200035605B1C0A681546DD4000D05CE7F0BDA1
:10793000001802400004005000080050000C0050E5
:1079400000100050426913460B401B0491430B4347
:1079500083617047002A01D081617047816270475E
:107960000148806870470000B40000200248816828
:107970000278891881607047B400002010B508486B
:1079800000240168821511430160012000F00AF80B
:10799000002801D0012401E000F052F8204610BD7B
:1079A0000020024030B505461F4887B0026801211B
:1079B00009040A43026000680840009005A901A874
:1079C00001F008F80498002815D001F01FF84000D5
:1079D0001649FEF7C9FF411E1648154A0260164AAD
:1079E000C2604160002101618160816101F089FA1A
:1079F000040003D015E001F009F8E9E70D4801F0B3
:107A0000A7FA04000DD1142000F054F8042D07D279
:107A100000222946142000F059F80848056000E0CB
:107A20000124204607B030BD4010024040420F0004
:107A30000040014088020020E7030000B800002059
:107A40003EB50024124800940194016801221143BC
:107A500001600068104002900D484038C26B01047C
:107A60000A43C263C06B0022084003210290481FF2
:107A700000F02CF86C2000900194684600F050FD56
:107A800000F0ACFD0320400201F02EFA3EBD0000E4
:107A900040100240002809DBC106C90E01208840C1
:107AA00003490860BFF34F8FBFF36F8F704700002B
:107AB00080E100E0002805DBC106C90E01208840F6
:107AC000014908607047000000E100E010B503F0D4
:107AD0004DFC10BDBFF34F8F04490348C860BFF38E
:107AE0004F8F00BFFDE700000400FA0500ED00E045
:107AF00010B50523DB010122C31801685A650B2468
:107B00000023A40100190373486D10434865486DB4
:107B1000022210434865184610BD0000F8B505461E
:107B20000520C0010E4C06272E1800290BD0012974
:107B300008D1F06D02F080FCE87A002802D02069BC
:107B400038432061F8BDE87A002804D001F078FDC0
:107B50002069B8432061F06D02F002FCF8BD00001E
:107B600000ED00E010B50C0606D54907490F2824A2
:107B700061430818143004E0282461430818FF30DA
:107B8000553099B2002A06D0012202730181190CE6
:107B90004181002010BD00220273C180F9E7282234
:107BA0004A4310B512180523DB01C018926AC06D54
:107BB00002F08EFA10BD28224A43121810B5052390
:107BC000FF32DB010132C018926EC06D02F0D8FAAC
:107BD00010BD70B5CD094907490F0A4628235943FE
:107BE000091801230024002D02D04B75143102E046
:107BF000FF3155314C700A700522D20185182A7D5B
:107C0000012A06D02B75006803F034F82C7500208B
:107C100070BD022070BD70B50A070379120F9A4239
:107C200001D9012070BDCD094907490F0A46282313
:107C30005943091801230024002D02D04B7514313B
:107C400002E0FF3155314C708C700A700522D20170
:107C500085182A7D012A06D02B75006803F0A0F84C
:107C60002C75002070BD022070BD0000F8B50C46D8
:107C70000646174600680978520427D501F072FCC1
:107C8000A1690546A94203D3481BA06102D00DE0BB
:107C90000020A0612078326881005058224B1840A3
:107CA00001235B035840214B18435050780609D5F7
:107CB00020783268810050581D4B18401B4B4033D0
:107CC00018435050002D2DD0228926E001F05AFC97
:107CD000A1690546A94203D3481BA06102D00DE06B
:107CE0000020A06120783268810050580E4B184067
:107CF00001235B0358400D4B18435050780609D4BC
:107D00002078326881005058094B1840074B4033A7
:107D100018435050002D05D0628961692B463068A8
:107D200003F07CFA2846F8BD8FBFFF078080000073
:107D30008F8FFF07F7B5064602980F460C4642069E
:107D40002037DB4D09783068002A7BDA01F00AFC25
:107D5000A169814214D9091AA16113D00299490479
:107D60000AD5217832688B00D1589C46D14B1940F6
:107D7000D14B19436346D1503979012963D087E14A
:107D80000020A0616078002802D001280FD039E0DF
:107D90002078C000401901688901890901602078B4
:107DA000C000401901680122D207114309E0207880
:107DB000C0004019016889B201602078C0004019F4
:107DC000016801606078002802D001280FD019E016
:107DD0002078C000401941688901890941602078F4
:107DE000C000401941680122D207114309E0207800
:107DF000C0004019416889B241602078C000401934
:107E000041684160E07802280BD120783268810017
:107E10005058A84B3033184020235840A74B1843E4
:107E2000505021783046FFF7BAFE0298400408D53A
:107E300020783268810050589E4B18409E4B184362
:107E40005050CBE057E0616909186161E169091898
:107E5000E1612269216A914203D31046091A216225
:107E600005E0002909D000223A71084622626178B3
:107E7000002905D001292ED03AE000213971F6E71A
:107E80002178C90049190A68920192090A600028FC
:107E90000BD03E2810D84108C20700D0491C2278D8
:107EA000D20052191368890612E02178C9004919D5
:107EB0000A680123DB0719E04109C20600D1491E07
:107EC0002278D2005219136889060125ED0729434B
:107ED0000B4313600CE02178C90049190A6892B27B
:107EE0000A602178C90049190A6803041A430A6024
:107EF00083B22289C8E001F045FBA169814214D315
:107F0000091AA16113D0029949040AD4217833686F
:107F10008A0099589C46674B1940674B1943634642
:107F20009950397901295BD0B2E00020A0616078D6
:107F3000002802D001280FD039E02078C000401975
:107F400001688901890901602078C0004019016831
:107F50000122D207114309E02078C00040190168CE
:107F600089B201602078C000401901680160607822
:107F7000002802D001280FD019E02078C000401955
:107F800041688901890941602078C0004019416831
:107F90000122D207114309E02078C000401941684E
:107FA00089B241602078C000401941684160E078A2
:107FB00002280BD120783268810050583D4B303375
:107FC0001840202358403D4B1843505021783046EC
:107FD000FFF7E5FD0298400400D429E70020FEBD2C
:107FE000616909186161E1690918E1612269216A21
:107FF000914203D31046091A216205E0002902D0FC
:1080000008460021216239716178002902D00129D6
:108010002BD037E02178C90049194A6892019209AA
:108020004A6000280BD03E2810D84108C20700D073
:10803000491C2278D20052195368890612E021782F
:10804000C90049194A680123DB0719E04109C20642
:1080500000D1491E2278D2005219536889060125A1
:10806000ED0729430B4353600CE02178C9004919FF
:108070004A6892B24A602178C90049194A680304E3
:108080001A434A60628983B26169306803F00CF96F
:108090002078316882008858064B3033184010230E
:1080A000584020235840054B1843885096E700005D
:1080B000009800408F8FFF0780C000008080000084
:1080C0004907490F282251430818FF300130006F3B
:1080D0007047F8B5CD094907490F0F462824614379
:1080E000091801260024002D02D04E75143102E03B
:1080F000FF3155314C705205520D0F700A61CB7033
:10810000022B00D10C710522D20185182A7D012A8B
:1081100006D02E75006802F0D3FB20462C75F8BD02
:108120000220F8BD10B54C07640F282161430918DF
:10813000FF3155318B614A610022CA614A700C706F
:10814000006802F083FE002010BD70B54B07027975
:108150005B0F934201D9012070BDCD09002401229B
:10816000002D05D02821594309184A75143105E01E
:10817000282569430918FF3155314C708A700B70FE
:108180000523DB01C5182B7D012B06D02A7500685D
:1081900002F040FE2C75002070BD022070BD70B54D
:1081A0004C07640F282161430918CB628A620122BF
:1081B00038256A544B6300230B634A750C750068BD
:1081C000143102F043FE002070BD000070B504467B
:1081D000006803F021F84749096A490704D50104FA
:1081E00003D5204601F014F870BD41050CD5206878
:1081F000416C414A11404164204600F017F90021CA
:10820000204600F045F970BD410403D52068416C5B
:108210003A4A6CE0810403D52068416C384A66E034
:108220000B218901C504042208236118002D17DAE7
:108230002068056C954305642068026C9A430264CB
:10824000087B012805D10020087301462046FFF76E
:1082500065FC204600F0FEF82068416C294A46E0A3
:1082600005050DD52068016C194301642068416C37
:10827000254B194041642068016C1143016409E0F9
:10828000050623D52068456C204E35404564087BA3
:10829000002803D0204600F02FF970BD2068056C3F
:1082A000154305642068026C1A43026401200873B8
:1082B0002068406D3C21800808400521C9016118F3
:1082C000086501212046FFF729FC70BD810508D50E
:1082D0002068416C0E4A11404164204600F0D0F8FD
:1082E00070BDC005FCD52068416C084A803A114039
:1082F000416470BD80000140FFFB0000FFBF000033
:10830000FFDF0000FFEF0000FFF700007FFF00002D
:10831000FFFD0000F8B5040007D00520C0012618B5
:10832000707D0025002802D005E00120F8BD3575DC
:10833000204600F03DF803207075206802F028FD0B
:10834000002001270AE02821414309194F750875CB
:10835000CD754D628D62401CC0B2CD6221798142E3
:10836000F1D800220FE02820504300190146FF31C8
:1083700041314D750A75FF300130CD754566856612
:10838000521CD2B2C56620799042ECD8207C694656
:1083900008700FCC103C02F0ECFC65747775207B04
:1083A000012802D12046FFF7A3FB0020F8BD000002
:1083B00030B595B004464C216846FEF704FB1949D8
:1083C000206888422CD101200006C512009011952A
:1083D000684600F013F9002801D0FEF726FC124C85
:1083E000E06B2843E063E06B28401390E06BC00033
:1083F0000CD4E06B25042843E063E06B2840139025
:1084000000F0F4F8E06BA843E06301E000F0EEF860
:10841000002202210820FFF759FB0820FFF74AFB42
:1084200015B030BD005C00400010024070B504463D
:10843000C0790125022801D0FEF7F7FB0520C00115
:1084400024182946E06D01F0A5FFE06D01F057FF0B
:1084500070BD000010B50446C07A002806D0074859
:10846000016906229143016101F0EAF80520C0018B
:108470002018C06D01F074FF10BD000000ED00E099
:10848000052110B5C9014018C06D01F073FF10BD82
:1084900010B50522D2018418227D012A08D00122BC
:1084A00022754174006802F0F0FE0020207510BDB6
:1084B000022010BD052110B5C9014118CA6DA721C0
:1084C00089004118104601F073FF10BD70B50446D5
:1084D0000520C0012518287D01280AD00120287513
:1084E000206802F091FE206802F03CFC0020287514
:1084F00070BD022070BD000010B504460520C0010B
:108500002018C06D01F098FFE07A002804D00348DD
:10851000016906221143016110BD000000ED00E079
:1085200010B5194A51687E23994303681943516075
:1085300016494A6801231B049A434A600A689A4311
:108540000A60124A803A54689C43546014689C4301
:1085500014604468E40302D50C681C430C60446852
:10856000A40302D54C681C434C600179C90702D0B2
:108570001168194311600079800702D550681843CB
:108580005060002010BD00000070004080180240C4
:1085900010B50F4C21680322520291430143216020
:1085A000C11FFF39FA390ED10A4806210068484335
:1085B0000949FEF7D9F9401C02E0002805D0401E09
:1085C00061694905F9D4002010BD032010BD0000E9
:1085D00000700040C000002040420F000248416887
:1085E0000122114341607047007000400248416819
:1085F000021511434160704700700040FEB504460B
:1086000000680027984D994E800355D500200090B2
:10861000F06BC00007D4F16BA8050143F163F16B67
:1086200001400120009092480168821511430160C9
:10863000FFF796F9019005E0FFF792F90199401ACA
:10864000022825D88A480068C005F5D5E8690321C5
:10865000090208400FD0216C81420CD0E869032147
:108660000902EA698843012109040A43EA61EA69C7
:108670008A43EA61E861C0070FD0FFF771F9019002
:1086800008E0FFF76DF90199411A7A48814201D952
:10869000032709E0E8698007F3D5E86903210902A7
:1086A0008843216C0843E8610098002804D0F16BEE
:1086B000012000078143F1632078C00705D0686975
:1086C000616880088000084368612078800705D5CC
:1086D00068690C218843A1680843686120784007D5
:1086E00005D5686930218843E168084368612078CE
:1086F000C00606D5686903218902884321690843B9
:1087000068612088C00406D568690321090288438E
:108710006169084368612088800506D5686903217E
:1087200089048843A16A084368612088400506D50A
:108730006869032109058843E16A08436861207874
:10874000800606D56869032109038843A1690843A7
:1087500068612078400606D568690321890388434B
:10876000E16908436861208840040ED56869216B7F
:1087700080008008084368610121206B89078842D6
:1087800003D1F06889130843F0602068000305D521
:10879000686940218843616B0843686120688102F1
:1087A00035480BD569698210A36B91431943696100
:1087B000A16B914202D1F1680143F1602168490245
:1087C0000AD56969E26B814311436961E16B8142BA
:1087D00002D1F1680143F160218809050DD5A9692D
:1087E000226A890889001143A961216A012904D1FB
:1087F000F168012212041143F160218889040DD52A
:10880000A9690C229143626A1143A961616A042932
:1088100004D1F168012212041143F1602168C901F9
:108820000ED5A969032212039143626C1143A96119
:108830000122616C5203914202D1F1680143F1605F
:10884000216889010DD5A969032212029143A26C06
:108850001143A961A26CD11FF93902D1F16801431A
:10886000F1603846FEBD000040100240001002409A
:10887000007000408813000000000001F8B50F46AA
:10888000060043D04D4D28684007400FB84213D230
:108890002868C008C00038432860FFF761F8044624
:1088A00005E0FFF75DF8011B4548814261D8286863
:1088B0004007400FB842F4D13068424C81070DD5D3
:1088C000400704D5A068072109030843A060A068F9
:1088D0000F2109028843B1680843A0603078C007BF
:1088E00032D0706801280AD002280BD000280FD09F
:1088F0003449403103280ED0C969890704E0216852
:10890000890301E021688901002906DB0120F8BD07
:1089100021684905F8E7096AEFE7A168C908C900B5
:108920000143A160FFF71CF8009006E0FFF718F87C
:108930000099411A224881421BD8A068382108407A
:108940007168C9008842F1D128684007400FB842D9
:1089500017D91A480168C908C90039430160FEF7F0
:10896000FFFF054607E0FEF7FBFF411B144881426D
:1089700001D90320F8BD114800684007400FB842F4
:10898000F1D13078400706D5A06807210903884354
:10899000F1680843A06000F04DF8A1683C22890905
:1089A0001140094A515CC906C90EC8400749086010
:1089B00007480068FEF7F6FFF8BD000000200240FF
:1089C0008813000000100240CCE60008C000002020
:1089D000B800002010B5072202600A4A93685B07BE
:1089E0005B0F436093680F242402234083609268E6
:1089F00007231B031A40C260034800684007400F6A
:108A0000086010BD001002400020024006480749DF
:108A100000688968064A4904490F8900515CC90603
:108A2000C90EC84070470000C0000020001002407E
:108A30000CE7000810B51C4CA0688006410F1B48CD
:108A400015D0A1688906490F01290FD0A1688906B0
:108A5000490F022911D0A0688006400F04281DD0BC
:108A6000A0688006400F03281BD0002010BD21689D
:108A700089044A0F012191400DE0E168E16849064F
:108A8000490F491CFDF770FFE1684904490E48434E
:108A9000E168490F491CFDF767FF10BD0120C003C5
:108AA00010BD7D20000210BD001002400024F40023
:108AB000F8B504007ED020783827C007FE4D002886
:108AC00046D0A868E96838408907890F102802D085
:108AD00008280BD001E0032908D0012062680004B7
:108AE00082420AD129680143296015E02868800381
:108AF0002ED560680028DDD02AE0052301211B0463
:108B000089049A422A6802D10A432A60EAE782432A
:108B10002A60286888432860606800280CD0FEF727
:108B20001FFF064604E0FEF71BFF801B642873D876
:108B300028688003F7D50BE0FEF712FF064604E035
:108B4000FEF70EFF801B6428F1D828688003F7D455
:108B50002078800769D5A868E96838408A07072126
:108B6000920FC902102802D0002813D001E0022A77
:108B700010D0E068002846D028688843216908435F
:108B800028602868FF21013108432860FEF7E8FECD
:108B900006462CE02A68520502D5E268002A89D0F0
:108BA0006A687F231B029A4363691B021A436A6047
:108BB000002800E08DE00ED1286888432169084331
:108BC0002860286801218004400F8140BB48FDF7E0
:108BD000CBFEBB490860BB480068FEF7E3FE0028F7
:108BE00077D122E0FEF7BCFE801B02289FD82868C0
:108BF0004005F7D568687F21090288436169090249
:108C00000843686011E02968FF2001308143296032
:108C1000FEF7A6FE064605E0B5E0FEF7A1FE801BC6
:108C2000022884D828684005F7D42078A64E00078B
:108C30002ED5A8688006400F03280AD0A069002816
:108C4000306A16D0012108433062FEF789FE0746DC
:108C50000BE0306A80071BD5A06900289FD017E081
:108C6000FEF77EFEC01B0228C0D8306A8007F7D509
:108C70000EE0400840003062FEF772FE074604E056
:108C8000FEF76EFEC01B02287DD8306A8007F7D43D
:108C9000207840076BD5A86800278006400F04287D
:108CA00018D0E86BC00008D4E96B0120000701432D
:108CB000E963E96B01400127009184480168C90517
:108CC00019D40168821511430160FEF749FE009036
:108CD0000DE083E0F069800749D5A06800287DD0C9
:108CE00045E0FEF73DFE0099401A02284BD8774830
:108CF0000068C005F5D5A168012910D00420052918
:108D0000F16911D049084900F161F1698143F161CC
:108D1000A068002816D0FEF723FE00900EE0F06950
:108D200001210843F061F3E70143F161F7E7FEF742
:108D300017FE0099411A6648814224D8F0698007DD
:108D4000F5D50DE0FEF70CFE009006E0FEF708FEFC
:108D50000099411A5E4881427FD8F0698007F5D4B6
:108D6000002F04D0E96B012000078143E9632078DC
:108D7000800624D50120E16980050029296810D0EA
:108D80000143296000E068E0FEF7EAFD064604E0E2
:108D9000FEF7E6FD801B02285FD828680002F7D5A1
:108DA0000DE081432960FEF7DBFD064604E0FEF797
:108DB000D7FD801B022850D828680002F7D4206A0B
:108DC000002844D0A9688906490F02294FD00126FE
:108DD00036060228286807D0B04300E07FE028600C
:108DE000FEF7BEFD04463AE0B0432860FEF7B8FD4A
:108DF000074604E0FEF7B4FDC01B02282DD8286802
:108E00008001F7D4A16A606AE26A0843216B12020A
:108E100011430843616B0843A16B0843E9682D4A7D
:108E200011400843E860286830432860E868012161
:108E300009070843E860FEF793FD044604E0FEF7E7
:108E40008FFD001B022808D828688001F7D548E06C
:108E5000FEF786FD001B022801D90320F8BD286813
:108E60008001F5D4E8681C490840E86039E0012831
:108E7000F4D0E868626A8107890F91422FD170218E
:108E8000A26A014091422AD17F21E26A090201408F
:108E90001202914223D11F214904226B01409142C9
:108EA0001DD107214906626B0140914217D1400F45
:108EB000A16B4007884211E0001002400024F4003A
:108EC000C0000020B80000204010024000700040A8
:108ED000881300008C80C111FCFFFEEE01D0012040
:108EE000F8BD0020F8BD000003490A6803235B02B7
:108EF0009A4302430A607047000001407047704780
:108F0000704770B5040005D025462035687F0028DD
:108F100002D006E0012070BD00202877204600F036
:108F200016F802206877211D206800F0D9FB012285
:108F300040342272AA77EA7722706270A270E270DF
:108F400022716271A271E2716A77002070BD704770
:108F5000014620314A7F012A01D0012070470222B8
:108F60004A770168CB6801221343CB6000680E4941
:108F700088420BD09107884208D00C49884205D01E
:108F80000B49884202D00B49884207D181680A4BBD
:108F90001940062905D0DB1F994202D00168114310
:108FA0000160002070470000002C014000040040D8
:108FB0000008004000400140070001007047000029
:108FC000F8B504460068C66805690027A9070029A6
:108FD00013DAB10711D5F91E01610120207720684D
:108FE00080698007204602D0FFF7E8FF04E000F028
:108FF0008BF8204600F089F82777680716D57007A8
:1090000014D504202168C04308610220207720681D
:1090100080698005800F204602D0FFF7CFFF04E073
:1090200000F072F8204600F070F82777280715D571
:10903000300713D508202168C04308610420207739
:109040002068C0698007204602D0FFF7B7FF04E020
:1090500000F05AF8204600F058F82777E80616D5B1
:10906000F00614D510202168C0430861082020773D
:109070002068C0698005800F204602D0FFF79EFF60
:1090800004E000F041F8204600F03FF82777E807B9
:1090900008D0F00706D001202168C04308612046AF
:1090A00000F034F8280601D4A80407D5300605D509
:1090B0002168134808612046FFF721FFE80507D51E
:1090C000300605D521680F4808612046FFF716FFD6
:1090D000680608D5700606D540202168C04308619F
:1090E000204600F01DF8A80608D5B00606D52020B9
:1090F0002168C04308612046FFF702FFF8BD000069
:109100007FDFFFFFFFFEFFFF7047704710B500686D
:109110000249884201D1FEF729FC10BD0040014000
:109120007047FEE770B500231D460EE0040F0A2CC1
:1091300002D25E00303401E05E0037348C555C00B2
:10914000641800015B1C6570DBB29342EED370BD06
:1091500010B502F087FB074A0021074803F0C6FA62
:10916000064C044A206024320021054803F0BEFA70
:10917000606010BD2CE60008D195000808000020B2
:10918000ADC0000808B50B48426B20210A4342637A
:10919000426B0A400092416B012211434163416BD3
:1091A00011400091426B02210A434263406B084028
:1091B000009008BD0010024010B500220F49104871
:1091C00000F05DFF002801D0FDF72FFD0D490C4890
:1091D00001F05DF9002801D0FDF727FD0A49084894
:1091E00000F02EFD002801D0FDF71FFD044801F01E
:1091F000D3F9002801D0FDF718FD10BD10000020A4
:10920000D407002094010020A0000020FEE7000009
:10921000F0B591B004468025CD4E91E1416C89B204
:109220000F073F0F082F02D3012011B0F0BD002F10
:1092300032D0B9000E91415889B20D9109047AD506
:109240000E9941580E9A3140294381502820784385
:109250000019FF3055300890007B002808986BD02B
:10926000C078022869D00898226800788100505898
:10927000B84B1840B84B18435050089920680978EB
:109280008A00825852047DD500F06CF900900028C5
:1092900079D008980289A8E0C90625D40168AD4AAA
:1092A000803A11400122D20311430160207D2746FC
:1092B000C100AA481437081800688001800D206397
:1092C000A16A0818A06200212046FEF768FC607CB5
:1092D0000028A2D0B86900289FD1607C216828436B
:1092E000C864002060742BE12746FF3701685537BA
:1092F00089B20A0533D5397800F054F9F8610828A5
:109300001CD0226810689649084001210903484092
:109310009149403908431060226810688D4B303302
:1093200018401023584008431060216808683040F6
:109330002843086009E17CE03FE048E0A72189007C
:109340000823FA886118206801F068FF216808681E
:109350003040284308602046FFF7ACF8F0E00904ED
:10936000C1D501683140294301603978206800F097
:1093700019F90300FB6112D079690029B3D0FA888A
:10938000206801E02AE028E001F048FFF9697869E7
:109390004018786100212046FEF70DFCD0E02168DE
:1093A00008686F4A1040012212035040520050409A
:1093B000694A403A10430860C2E00178206800F032
:1093C000F1F80090002815D00898C2880DE02046DA
:1093D0000D9A0899FEF74AFC00900BE000F0D2F8D5
:1093E0000090002806D00898428941692068009BB7
:1093F00001F014FF0898C169009808180899C8611D
:1094000008988069002804D0089801690098814272
:1094100005D9089801782046FEF7CDFB09E00898A9
:10942000416900980918089841612068089901F07D
:109430000DFD0D9800062AD52820474322680E9876
:1094400039191058434B803B18400123DB03184364
:109450000E9BD050C87D1431012819D00D98C0053D
:109460006AD40878C2003D48101800688A698001F3
:10947000800D824259D9121A8A6158D04A6912184D
:109480004A61CA691018C861206801F0DFFC57E022
:1094900000208861087B002849D00D984006487854
:1094A00021D5002802D0012810D040E008782B4AAE
:1094B000C000801803689B019B0903600878C00006
:1094C000801802680123DB071A430AE00878C2000B
:1094D0002248121813689BB213600A78D200101841
:1094E0000268026023E0002802D0012810D01EE0AC
:1094F00008781A4AC000801843689B019B094360A2
:109500000878C000801842680123DB071A430AE08C
:109510000878C2001148121853689BB253600A7849
:10952000D20010184268426001E00020886109788A
:109530002046FEF734FB03E020460D9AFEF7FAFBC7
:109540002068416C090400D568E600206DE6000043
:109550008F0FFF078F8FFF07C0800000009800402B
:109560008FBFFF0708B50A200090401E0090FCD175
:10957000C8000349401800688001800D08BD000044
:109580000098004008B50A200090401E0090FCD1D1
:10959000C8000349401840688001800D08BD0000E4
:1095A0000098004008B50A200090401E0090FCD1B1
:1095B000C8000349401840688001800D08BD0000C4
:1095C00000980040704701784078000208437047D7
:1095D000002405252D0701212846FEF7B3F90221B5
:1095E0002846FEF7AFF9642002F0A4FD641C0A2CA3
:1095F000F1D3012211462846FEF7ACF901220221DF
:109600002846FEF7A7F902F093FCFFF7D5FD02F01C
:1096100087FA03F0ABFC002802D002F061F9FEE704
:10962000642002F087FDF4E710B50448006904F0F7
:10963000F5FD012801D004F0A5F910BD00E000E01F
:1096400030B593B03C216846FDF7BDF900240120F8
:109650000F941094119440021294FEF799FF012088
:109660000090000401900320099002250F200B9028
:1096700028040C90089580020D90032040070E905E
:109680000A946846FFF714FA002801D072B6FEE784
:1096900007200F9011940221109512940FA8FFF744
:1096A000EDF8002801D072B6FEE713B030BD704768
:1096B00010B50248FFF784FC10BD000088020020AE
:1096C00010B50248FDF783FD10BD00002402002004
:1096D00010B50248FDF77BFD10BD000024020020FC
:1096E000F0B50268244B0124A407244D244E98426F
:1096F00005D0A04203D0A84201D0B04204D1174601
:10970000702297434A683A431E4F984210D0A042B5
:109710000ED0A8420CD0B0420AD01B4CA04207D0B9
:10972000B84205D0194CA04202D0194CA04204D135
:1097300003242402A243CC6822438024A2434C6920
:1097400022438C68C4620C688462984207D0B84295
:1097500005D00E4B984202D00D4B984201D10969B9
:109760000163016804231943016001214161BFF3D2
:109770004F8F0260F0BD0000002C0140000400404B
:10978000000800400040014000200040004401402B
:109790000048014010B50A46024903A000F040FC11
:1097A000004810BDB00A002043444320436F6E665A
:1097B00069670000F3B505460520C0012E18726DDB
:1097C000B16C920052191218146C81B0002C29D07F
:1097D000029814220007000F42435719BA69002A61
:1097E00008D0282358434018416A1046FDF7BCF8BA
:1097F000002919D0E01D0022FF30FA3001464261F5
:10980000726D05209200C00152191018406C036956
:10981000002B05D08868212109016118029A984718
:109820000020FEBD0320FEBD0020B86103460246B5
:109830002846029900F00CFEF2E7F8B50525ED0187
:1098400006464719786D800080194019046C002C79
:1098500014D0304600F0DCFC0146E01DFF30FA3049
:10986000C160796D4068890089194919496CCA68D5
:1098700083218900611890470020F8BD0320F8BDBE
:10988000F8B5204D0446297800F018FC28781421FA
:109890000007000F48430026001986846978204697
:1098A00000F00CFC687814210007000F48430019F1
:1098B000FF3041308684A978204600F0FFFBA8786D
:1098C00014210007000F4843001986844D01C68407
:1098D0006719786D800000194019016C00290FD0BC
:1098E000406C40688047786D800000194019006C1A
:1098F00000F0E0FF786D8000001940190664FE63F7
:109900000020F8BD40010020122008800048704768
:1099100034000020052110B5C9014218526D920093
:1099200010184018016C00290FD0436C002B0AD08E
:10993000CC1DFF34FA342078FF2804D09B6862786D
:109940009847FF202070002010BD032010BD0000AC
:109950000A210180004870474401002070B5064686
:109960008221104800F032FB054601210D4800F02D
:109970002DFB044681210B4800F028FB002D01D06F
:109980000121A9714021002C02D021710A0A6271C3
:10999000002802D00171090A41714320308001483A
:1099A00070BD00005001002070B5064682211048AD
:1099B00000F00CFB054601210D4800F007FB0446B2
:1099C00081210B4800F002FB002D01D01021A9716C
:1099D00001214902002C02D021710A0A627100287B
:1099E00002D00171090A417143203080004870BDE6
:1099F0005001002070B506468221104800F0E6FABA
:109A0000054601210D4800F0E1FA044681210B488A
:109A100000F0DCFA002D01D00121A9714021002CB9
:109A200002D021710A0A6271002802D00171090A6C
:109A3000417143203080014870BD0000500100207A
:109A4000F8B504468720800000F036FF0525ED01BB
:109A50006719064600285DD087218900FCF7B3FF0F
:109A6000796D28468900091908180664FE63207C70
:109A7000414D002856D0402302222978204600F08C
:109A800027FC287814220007000F504301210019F9
:109A90008184402302226978204600F019FC69780D
:109AA00014220907090F51430919FF3101204131DF
:109AB0008884A9780907090F51430919C884082324
:109AC0000322A978204600F003FCA9781422090794
:109AD000090F514301200919FF368884FF36002001
:109AE00002367060796D5001890009190818406CC0
:109AF0000068804700207061B0617268002A0FD052
:109B0000207C002835D040236978204600F0EDFB0A
:109B10000020F8BD796D00208900091949190864F1
:109B20000220F8BD01235B0202222978204600F0C2
:109B3000CFFB297814220907090F51430120091985
:109B40008884430202226978204600F0C1FB6978CC
:109B500014220907090F51430919FF31012041312E
:109B60008884A87810210007000F50430019C18491
:109B7000A5E701235B02C7E74001002010B50A46B4
:109B8000024903A000F04CFA004810BDB00A0020C2
:109B900043444320496E746572666163650000004A
:109BA00004200880004870473000002010B50A46A5
:109BB000024903A000F034FA004810BDB00A0020AA
:109BC00057654163742053747564696F0000000029
:109BD00010B50A46024903A000F022FA004810BD61
:109BE000B00A00205553423243414E563120436F54
:109BF0006D506F7274000000052110B5C901421844
:109C0000526D920012185118096C00290DD0027C77
:109C10000A4C002A0BD0FF31FF3102314A68402341
:109C2000617800F062FB002010BD032010BDFF3101
:109C3000FF31023101235B024A68F1E74001002055
:109C4000002909D00522D20183185B6D9B001818EA
:109C500080184164002070470320704770B51A20B7
:109C600008800C480C4D4369016980690C180AD0C2
:109C70000422A91C1846FFF755FA294608220A3182
:109C80002046FFF74FFA05480322A91CFFF74AFABE
:109C9000014870BD8075FF1F480000200000A0AA89
:109CA0000522D20183185B6D9B0018188018006C88
:109CB000002805D0FF30FF3002304160002070479F
:109CC0000320704710B50523DB01C418646DA400A0
:109CD0002018C018006C002806D0FF30FF3002307A
:109CE00002618160002010BD032010BDFEB50C464E
:109CF00005210746C9014018426D6B469200D219F2
:109D0000511800220E6C1A709A801546002E06D04B
:109D1000237860221A402BD0202A45D101E003206D
:109D2000FEBDE288002A1CD018060AD5496C60786E
:109D30008B6831469847E288072A00D907223146C6
:109D40002BE0F11DFF316278FA310A70E08840287B
:109D500000D34020C2B24A703146384600F081F844
:109D600027E0496C60788B6800222146984720E004
:109D70006178002906D001291BD00A2908D00B29B7
:109D800012D10EE0007F03280ED1022201A904E0C7
:109D9000007F032808D101226946384600F07EF88A
:109DA00007E0007F032804D02146384600F04FF832
:109DB00003252846FEBD000070B50521C9014218E3
:109DC000526D9200121851180A6C0121002A06D017
:109DD000FF32FF3202325369002B02D011E0032020
:109DE00070BD0121516108491425097814690B07D8
:109DF0001B0F6B431B189C611369926800F028FBD2
:109E00000021084670BD00004001002010B5052269
:109E10000024D2018218926B52689047002800D02B
:109E20000324204610BD00207047002070471346D1
:109E300010B50A46002100F058FA002010BD134664
:109E400010B50A46002100F003FB002010BD10B53C
:109E50000446802100F0DCFA0021204600F0D8FA08
:109E600010BD10B505240323E40104196361C31D6B
:109E7000F9339A65DA6513460A46002100F035FA8F
:109E8000002010BD052110B5CA01821851610023C0
:109E90001A46194600F029FA002010BD10B5052415
:109EA0000223E4010419636182611346C2610A4618
:109EB000002100F0CDFA002010BD052210B50421CC
:109EC000D2018218516100231A46194600F0C0FAE7
:109ED000002010BDF8B50D460446002069460880F4
:109EE00069880520C0010A0A2018062A42D006DC2B
:109EF000012A0FD0022A14D0032A5ED11EE0072ABD
:109F000041D00F2A59D1406BC26921E0207C6946BB
:109F1000904736E0406B227C0368694610469847BC
:109F20002FE0217C0226806B002905D0C16A68469B
:109F300088470146467030E0816AF8E7C9B20B00F5
:109F400001F006FA0604090C0F12153B406B42683B
:109F5000002ADBD131E0406B8268F9E7406BC268D0
:109F6000F6E7406B0269F3E7406B4269F0E7406B4C
:109F70008269EDE7217C00291FD1806B416B684627
:109F80008847014609E0217C002916D1806B016BCE
:109F900068468847072201464270EA88002A11D0A5
:109FA00068460088002808D0824200D902466846E8
:109FB00002802046FFF772FFF8BD29462046FFF7D2
:109FC00046FFF8BD2046FFF778FFF8BD78B50E468E
:109FD000C17883780A02017800251A4304468A4230
:109FE00015D96A4611800AE0694600F012F84178F6
:109FF000052904D181780546B14208D00025E178D1
:10A00000A278090211436A4612889142ECD8284688
:10A0100078BD0A880378D2180A800178081870473A
:10A0200070B5002300281DD00025044602E06D1CF9
:10A03000EDB2641C2678002EF9D16C00A41C1480AB
:10A040001278CA5403225B1CCA5400245B1C06E02D
:10A05000CA545B1CDAB28C54521CD3B2401C027836
:10A06000002AF5D170BD01460020002904D0012945
:10A0700001D0022901D0032070470120704710B59C
:10A0800000280FD00523DB010024C3189C635C6407
:10A090001C65002900D0596301211977027000F076
:10A0A000BFF810BD032010BD052210B5D2018018E5
:10A0B000806CFDF7B0FDFFF7D6FF10BD052210B58F
:10A0C000D2018018806CFDF784FDFFF7CCFF10BD36
:10A0D000F8B507460520C00100253C1813460029A5
:10A0E00003D0207F03283FD048E03E466069143605
:10A0F000022831D1B168F068814206D90A1A19469E
:10A100003846B260FFF79BFE0DE0884212D17168BD
:10A1100081420FD3A06981420CD2002211463846F9
:10A12000FFF78DFEA56100231A461946384600F058
:10A13000DCF811E0207F032807D1A06BC16800295B
:10A1400003D06565C168384688478021384600F0ED
:10A150005FF93846FFF796FE152040013818017860
:10A1600000290BD0057009E0A06B4269002A05D0D8
:10A170006565426938469047002800D10020F8BD47
:10A18000F8B506460520C0010023341817460029FB
:10A1900003D0207F03282FD038E03546FF35606993
:10A1A0005535032832D1A968E868814209D90A1ACD
:10A1B000AA60824200D3024639463046FFF737FE96
:10A1C00024E0152040013018807AC006C00E03D06C
:10A1D000012802D0022800D00023207F032807D1C5
:10A1E000A06B0169002903D0636501693046884787
:10A1F0003046FFF762FE09E0A06B8269002A05D0B5
:10A200006365826930469047002800D10020F8BD80
:10A21000052210B5D2018018806CFDF751FF10BDEA
:10A2200010B520490522C865D20184181E491F486F
:10A23000A16408600820087148710220C871487242
:10A2400000208872C872087348738873C8730874D2
:10A250000846FEF75FF8002801D0FCF7E6FC002274
:10A2600018231146A06CFDF77DFC582300228021A5
:10A27000A06CFDF777FCC02300228121A06CFDF7C4
:10A2800071FCFF23113300220121A06CFDF76AFC51
:10A29000FF23013300228221A06CFDF763FC002024
:10A2A00010BD000074070020F4040020005C004092
:10A2B000CA094906490E282359431B01C018806C5E
:10A2C0000818002A01D0807D7047FF304130FAE73E
:10A2D00010B51C460523DB01C0181346806C2246CE
:10A2E000FDF7F7FEFFF7BFFE10BD10B50524E40132
:10A2F0000019806CFDF716FFFFF7B5FE10BDF8B52D
:10A300000446052000260125C00121180D774E6165
:10A31000152266605201A2184E621670886B0028E2
:10A3200008D04268002A05D0002120469047002826
:10A3300000D003260022402311462046FFF7C8FF25
:10A34000FF20653005534027001F07513B46002280
:10A3500080212046FFF7BCFFA58430462762F8BD68
:10A360000521C9014018017F042901D1417F0177EE
:10A3700000207047052110B5C90141180A7F032A42
:10A3800006D1896B002903D0C969002900D088470C
:10A39000002010BD017400207047052210B5D201C5
:10A3A0008018806CFEF774F8FFF75DFE10BD0000AA
:10A3B00070B5054615482818044600F053F80520E6
:10A3C0000121C00128184161018E816115204001E1
:10A3D0002818807AC106C90E09D001290CD002299B
:10A3E0000FD0C109C901284600F012F870BD2146FE
:10A3F000284600F0D5F870BD2146284600F01FFA27
:10A4000070BD2146284600F05EF970BDAA0200002A
:10A41000052210B5D2018018806CFDF796FEFFF77B
:10A4200022FE10BD052110B5C9014018806CFEF751
:10A430004DF8FFF718FE10BD0521C9014018017F36
:10A44000042901D0017F4177042101770020704762
:10A4500010B50524E4010019806CFDF7A0FEFFF79C
:10A4600002FE10BD70B505460878287048786870FF
:10A470008C1C2046FFF7A7F86880A01C0446FFF755
:10A48000A2F8A880A01CFFF79EF8E88070BD38B540
:10A4900000226B461A80002913D00522D2018418AD
:10A4A000A163616D890008188018806BC16A00295A
:10A4B00002D0184688472065A06D401CA06500208A
:10A4C00038BD032038BD05230246DB01D3189B6B42
:10A4D0000020002B02D01B68104618477047000070
:10A4E000F3B581B0044602982A4E81780025317078
:10A4F000012905D920460299FFF7A9FC0320FEBDDA
:10A500000520C0012718387F02280CD003281CD052
:10A5100020460299FFF79BFC31782046FFF776FC36
:10A5200003252846FEBD002930D020466160FFF794
:10A53000CAFF050004D020460299FFF788FC1CE002
:10A540002046FFF7BAFC032018E0002918D0606805
:10A5500088421BD0C1B22046FFF758FC3178204614
:10A560006160FFF7B0FF050010D020460299FFF7A9
:10A570006EFC21792046FFF749FC02203877D0E7AE
:10A580000220387720466160FFF740FC2046FFF745
:10A5900094FCC6E73C01002010B5FFF743FF10BD57
:10A5A000F8B50B78602213400522D20100268518E9
:10A5B000002B0BD0202B01D0402B79D16B6D9B0051
:10A5C0001B189A18926B926890472FE04C780022E3
:10A5D000230000F0BDFE0A40666D566D09066D2D24
:10A5E000296DFFF777FC65E004468888002819D1BB
:10A5F000C888002816D14888802813D24706287FAB
:10A600007F0E03280ED0AF7739462046FFF7C5FEF0
:10A610002046FFF752FC002F01D0022000E001206D
:10A62000287747E0204643E0FFF75AFF064641E01F
:10A63000CB88012B3CD12B7F012B04D0022B02D0E5
:10A64000032B35D104E0826001220146083115E078
:10A650000122011D12E02B7F012B03D0022B01D020
:10A66000032B25D1CB88022B22D1C260696A002935
:10A6700001D00221C160014602220C31FFF70EFC1D
:10A6800018E04A88012A02D0022A03D010E00121F2
:10A69000696215E089881522090A52018218117031
:10A6A0000EE02B7F012B07D0022B05D0032B03D00C
:10A6B000FFF7CDFB3046F8BD49880129FAD16A621F
:10A6C000FFF7FBFBF6E7F8B50646002000900F46C3
:10A6D0000C790878602108400521C9017518002807
:10A6E0000CD0202801D040286ED121463046FFF7FB
:10A6F0009AFBFF2801D000283ED09EE07878002801
:10A7000044D0012826D003285ED1287F022802D019
:10A71000032859D10CE0002C56D0802C54D021466F
:10A720003046FFF775FE80213046FFF771FE84E06A
:10A73000788800280AD1002C08D0802C06D0F88810
:10A74000002803D121463046FFF762FE3046FFF76E
:10A75000B4FB72E0287F0228DDD0032869D1788815
:10A7600000286AD1600603D021463046FFF79CFCE2
:10A770003046FFF7A2FBB8E76865A86B8268002A3D
:10A780005BD0394630469047009056E0287F02283B
:10A7900002D003284DD118E0002C01D0802C48D1E4
:10A7A000E00906D06006400E142148438119143197
:10A7B00006E06006400E142148438119FF315531EF
:10A7C0000020022208602EE033E0E0090DD02007CF
:10A7D000000F142148438019808C002829D060067E
:10A7E000400E4843851914350FE02007000F14214F
:10A7F00048438019FF304130808C002819D0600612
:10A80000400E48438519FF355535002C0FD0802C5C
:10A810000DD021463046FFF74BFD002807D0012020
:10A820000222294628603046FFF738FB05E0002069
:10A83000F6E739463046FFF70AFB0098F8BDF8B551
:10A8400007460D46087800246021084003D02028E0
:10A8500001D0402828D10520C0013E18307F0128B2
:10A8600003D0022801D003281ED1A888C1B2012933
:10A870001AD8C1B23846FFF7D8FAFF280CD0002802
:10A880000AD1B16B8A68002A06D070658A682946A9
:10A8900038469047044600E00324E888204307D167
:10A8A0003846FFF70AFB03E029463846FFF7CFFAA0
:10A8B0002046F8BD7047000000487047D4020020D1
:10A8C000F8B5002200920A7894000259E14B1A4030
:10A8D000CB78002B6BD0012B71D0022B03D0032B34
:10A8E00068D001230093DC4B1A4302510E78B50067
:10A8F0004259DA4C224032431A4342510E7B1D0624
:10A90000D74A002E5ED0CE78022E0E787ED0B700C9
:10A91000C659BC46D34F3E401E436746C6510E78CB
:10A92000F600B61837683F0C3F0437600E78F60023
:10A93000B6183768B4460E89B608B600374366467F
:10A9400037600E78F600B61877683F0C3F047760E2
:10A950000E78F600B7187E68BC464F89BF08BF0066
:10A960003E4367467E604E78002E7DD00A78950083
:10A970004259520404D54259BB4E224032434251FF
:10A980000A7895004259520605D542592240B24CE8
:10A99000403422434251CA78012A0A7871D0940087
:10A9A0000259AE4D30352A4020256A4046E1012348
:10A9B0005B0201E003235B021A4394E7FFE70123F4
:10A9C0009B02F9E74E78002E2DD00D78ED00AD18E2
:10A9D0002E68360C36042E600D78ED00AA18156826
:10A9E000CE88B608B600354315600A7892008558BF
:10A9F0006D0605D585582540974C40342543855034
:10AA0000CA78012A09D009788A0000E06DE08158EF
:10AA1000924C3034214020245AE009788A00815831
:10AA20008E4C303410E10E788D4AF600B6187768F7
:10AA30003F0C3F0477600E78F600B7187E68BC467E
:10AA4000CF88BF08BF003E4367467E600E78F600A1
:10AA5000B2185668B601B60956600A69002A11D0C4
:10AA60003E2A15D8550800E046E0D20700D06D1CFC
:10AA70000A78D6007A4AB2185668AD062E43566058
:10AA800013E0D6E00A78D600754AB2185668F5E7A2
:10AA90005609D20600D1761E0A78D700704ABA1835
:10AAA0005768B6062E43374357600A7895004259D7
:10AAB000520404D5425922406B4C2243425109783A
:10AAC000002907D08A008158684C21400124640382
:10AAD0006140BAE00168654A114001221203514009
:10AAE0005200514019430160B1E0B700C659BC465D
:10AAF0005F4F26403E4310E70E78B600B4468659B5
:10AB0000760406D566468659574F26403E4367462B
:10AB1000C6510E78B700C659760605D5C6592640E7
:10AB20004D4C40342643C6514C78002C02D0012CA9
:10AB300029D053E00C78E400A4182668B601B609C1
:10AB400026600C69002C0BD03E2C0FD86608E40759
:10AB500000D0761C0C78E400A4182768B6060FE035
:10AB60000C78E400A41826682E4319E06609E40670
:10AB700000D1761E0C78E400A4182768B6062E4390
:10AB8000374327600DE00C78E400A4182668B6B2BD
:10AB900026600C78E400A41826680F8A3F043E4320
:10ABA00026604C78002C02D0012C35D016E00C78B1
:10ABB000E400A4186668B601B60966600C69002C4A
:10ABC00019D03E2C1CD86508E40700D06D1C0C7809
:10ABD000E400A2185468AD062C4354600A7894002F
:10ABE0000259224D2A4001252D036A406D006A401A
:10ABF0001A43025111E70C78E400A2185468EBE7FD
:10AC00006609E40600D1761E0C78E400A2185468A8
:10AC1000B6062E433443E0E70C78E400A4186568D8
:10AC2000ADB265600C78E400A21854680D8A2D045A
:10AC3000D2E794000259094D30352A401A43025197
:10AC400009788A008158094C2140194381500098A5
:10AC5000F8BD00008F89FF07808000008F8FFF07FD
:10AC6000009800408F8EFF0780C000008FBFFF0755
:10AC700080810000F0B50A780F7B364B4E78364D58
:10AC8000364C9200002F22D0002E865840D07604F9
:10AC900003D5865826402E4386500A78960082595E
:10ACA000520605D582592B4F224040373A438251F4
:10ACB0000A789600825922402A4382510A789400E9
:10ACC0000259264D30352A401A43025117E0002E12
:10ACD0000ED085586D0605D5855825401D4C40344D
:10ACE0002543855009788A0081581C4C30340AE08D
:10ACF0008658760403D5865826402E438650097818
:10AD00008A008158164C2140194381500020F0BD23
:10AD1000760403D5865826402E4386500A7895003F
:10AD20004259520605D542590A4E22404036324316
:10AD300042510A78950042592240064C4034224341
:10AD400042510A7894000259054D2A401A43025193
:10AD5000C8E700008080000080C000008F8FFF07E0
:10AD60008FBFFF07816D0122D2031143816500204F
:10AD7000704700B5034601201864186C4008400075
:10AD800018640021184600F06FFA0021596400BDD4
:10AD9000024A016C914301640020704780BF0000AB
:10ADA00030B50A784B789200002B164D164C83581C
:10ADB00012D05B0605D583582B40134D40352B43ED
:10ADC0008350CA78012A1AD009788A0081580D4B1D
:10ADD0003033194020230FE05B0404D583582B4007
:10ADE0000A4D2B43835009788A008158084B19403B
:10ADF00001231B0359405B0059402143815000202F
:10AE000030BD00008F8FFF078080000080C00000F1
:10AE10008FBFFF0710B54A780978094B8900002ACF
:10AE2000425803D0074C2240102403E0064C224035
:10AE30000124240362401A434250002010BD000048
:10AE400080800000BF8FFF078FBFFF07F8B50C465B
:10AE500007464978E54AE64B207B012908D00028BF
:10AE600079D0E078022877D0012876D00120F8BD8B
:10AE7000A56921698D4200D90D46DE4E002815D006
:10AE8000E0780228206A25D0401B206220788100CB
:10AE9000795849067DD5C0008019416889B2416062
:10AEA0002078C000801941682A0426E1ABB2E2880C
:10AEB0003846616900F0F8F92078C000801901680F
:10AEC00089B201602078C000801901682A0411430A
:10AED00001601AE188427BD92078810078581040BF
:10AEE000C54A10437850206A401B206220788100B8
:10AEF0007958490661786CD5002902D001292DD0F6
:10AF000038E0C00080194168890189094160002D3D
:10AF10000BD03E2D10D86808E90700D0401C2178DE
:10AF2000C90089194A68800612E02078C00080199B
:10AF300041680122D2071BE06809E90600D1401EE2
:10AF40002178C90089194A6880060123DB07184364
:10AF500002434A600EE00AE125E121E1C0008019C8
:10AF6000416889B241602078C000801941682A0494
:10AF7000114341606289ABB23846616900F094F9CF
:10AF80006069401960612169206A884202D9401BCA
:10AF900002E036E00546002020626078002802D0FA
:10AFA00001282DD039E02078C0008019016889017E
:10AFB00089090160002D0DD03E2D12D86808E907DF
:10AFC00000D0401C2178C90089190A68800614E065
:10AFD000B6E024E02078C000801901680122D20781
:10AFE00019E06809E90600D1401E2178C9008919D5
:10AFF0000A6880060123DB07184302430A600CE05D
:10B000002078C0008019016889B201602078C000F2
:10B01000801901682A0411430160228970E0002927
:10B0200002D001292AD035E0C000801901688901C9
:10B0300089090160002D0BD03E2D10D86808E90762
:10B0400000D0401C2178C90089190A68800612E0E6
:10B050002078C000801901680122D20718E0680931
:10B06000E90600D1401E2178C90089190A688006C6
:10B070000123DB07184302430A600BE0C00080197C
:10B08000016889B201602078C000801901682A0433
:10B09000114301602289ABB23846616900F004F9BE
:10B0A0006069401960612169206A884201D9401BAA
:10B0B00001E00546002020626078002802D00128C7
:10B0C0003CD01CE02078C0008019416889018909C2
:10B0D0004160002D0BD03E2D21D86808E90700D033
:10B0E000401C2178C90089194A68800623E020782D
:10B0F000C000801941680122D20711434160628972
:10B10000ABB23846616900F0CFF8207881007858FA
:10B11000364A3032104010225040202260E0680948
:10B12000E90600D1401E2178C90089194A688006C5
:10B130000123DB07184302434A60E0E72078AAE6D0
:10B1400021788A00B95819402C4B1943B9502178FD
:10B15000C90089190A6892B20A602178C900891960
:10B160000A6803041A430A60228983B2C9E7A06906
:10B17000002802D1E07800280CD02078810078588F
:10B180001E4A1840104378502169A069884207D9A7
:10B19000401A06E02078810078581040164AF1E7FE
:10B1A0000020A06113E0E069002810D02078810021
:10B1B000785880B2430401D5430602D4104B18429C
:10B1C00005D1785810400D4A40321043785020780D
:10B1D000810078580B4A104001221203504052005F
:10B1E0005040064A104378500020F8BD8F8FFF076B
:10B1F0008F8EFF0700980040808100008080000053
:10B20000404000008FBFFF070021416401490164F5
:10B210000020704780BF0000406C7047F8B5D81C14
:10B22000850810489E07B60F17180C46002E00D050
:10B230006D1E002D07D038682146FBF7E0FB241D6A
:10B240006D1E3F1DF5E7002E0AD03868EA00014662
:10B25000D1402170641C6D1C761E3604360CF5D16D
:10B26000F8BD000000980040002903D0012905D056
:10B2700001207047016C4900490803E0016C01227C
:10B28000D2071143016400207047002901D18021B9
:10B29000C16400207047000010B50248FCF796FF1B
:10B2A00010BD0000F4040020F8B5D81C85089E07E6
:10B2B000B60F0C4600D06D1E0C48171805E020464E
:10B2C000FBF793FB01C7241D6D1E002DF7D1002E47
:10B2D0000BD000202178EA009140641C6D1C761E82
:10B2E00008433604360CF5D13860F8BD00980040AC
:10B2F0000FB47CB50C0009AD01D0611E00E0002147
:10B3000001910090074B6A462946089800F060F8C2
:10B31000002C02D0009A002111707CBC08BC04B043
:10B320001847000045B800080FB410B504A9074B32
:10B3300002AA039800F04CF8044602A9002000F08D
:10B340008CFA204610BC08BC04B018475BB8000853
:10B3500030B47446641E2578641CAB4200D21D468E
:10B36000635D5B00E31830BC184700008307FF22D1
:10B37000DB0E9A408907090E9940002808DB8308F4
:10B3800009489B001B1818689043084318607047D1
:10B390000007000F0838830804489B001B18D86971
:10B3A00090430843D861704700E400E000ED00E0FE
:10B3B00002E008C8121F08C1002AFAD1704770477E
:10B3C000002001E001C1121F002AFBD170470000DC
:10B3D000FFB591B00F460546002606E025280AD0A5
:10B3E000149A139990476D1C761C28780028F5D183
:10B3F000304615B0F0BD002400940121F34A0294B8
:10B4000000E004436D1C2B780846203B9840104216
:10B41000F7D128782A280ED0022228780146303920
:10B42000092915D800990A23594330394018144383
:10B430006D1C0090F1E701CF0090002805DA012093
:10B4400040030443009840420090022004436D1CD6
:10B4500028782E2815D10420044368786D1C2A28EA
:10B460000AD101CF6D1C02900BE002990A225143D0
:10B47000303940186D1C029028780146303909296E
:10B48000F3D928786C2810D006DC4C281AD068280C
:10B490000ED06A2817D104E0742813D07A2812D16C
:10B4A00010E00120400504430CE00121090501E002
:10B4B000032109050C436978814203D1012000056D
:10B4C00024186D1C6D1C28786E281ED00CDC632897
:10B4D00031D004DC00288BD0582811D1B2E0642888
:10B4E0007BD069280CD178E073282DD004DC6F283C
:10B4F00070D0702804D1A7E075286CD078286BD064
:10B50000149A13999047761C62E06002400F02285B
:10B5100007D003280AD0042838680AD006603F1DE7
:10B5200056E03868F11706604160F8E73868068031
:10B53000F5E70670F3E73878694608740020487428
:10B5400004A80390012003E0386803900020C04362
:10B550003F1D61070FD5002101E00199491C029AA6
:10B560000191914213DA8142F7DB019A0399895CD8
:10B570000029F2D10BE0002101E00199491C019161
:10B580008142FADB019A0399895C0029F5D101997E
:10B590000098139A401A00902146149B00F03CF941
:10B5A00001998019461807E0039803990078491C0F
:10B5B0000391149A139990470198401E0190401CE2
:10B5C000F2D12146149B139A009800F015F98619C0
:10B5D0006D1C0AE741E033E034E00A2000210490CA
:10B5E00005916002410F022905D001CFC217944690
:10B5F000032905D007E0FF1DFF08FF0003CF06E089
:10B6000000B2C2179446042902D140B2C1178C4639
:10B6100000226146944506DA0A46002140429141E3
:10B620008C462D2102E0210504D52B216A46117696
:10B63000012103E0E10701D02021F7E7019155E066
:10B640000A200BE0102009E01020049000210420C3
:10B65000044308200591029003E008200021059191
:10B6600004906002410F022905D001CF00229446C8
:10B67000032906D006E0FF1DFF08FF0003CF8C461C
:10B6800003E080B2042900D1C0B20021019121075A
:10B690002CD529780391702906D0049A1021059B96
:10B6A0004A401A4305D00EE040216A461176012136
:10B6B00008E06146014306D030216A4611760399BD
:10B6C000517602210191049A0821059B4A401A43B0
:10B6D0000CD16146014301D1610707D530216A468B
:10B6E0001176012101910299491E02912978582968
:10B6F00004D037A103910FA90F910DE039A1F9E70B
:10B700006146059B049AFBF783F9039B8C469B5C7F
:10B710000F9A521E0F92137061460143F0D10F9899
:10B7200007A9081A20300390600704D501200004FF
:10B730008443029801E0012002900399884201DDD0
:10B74000401A00E000204118029001980918009862
:10B75000401A0090E00306D42146149B139A0098E7
:10B7600000F05AF886190020049008E006A9085C49
:10B77000149A139990470498401C761C04900199E0
:10B780008842F3DBE0030CD52146149B139A009802
:10B7900000F042F8861904E0149A3020139990477B
:10B7A000761C0299481E02900029F5DC08E00F98EB
:10B7B0000F990078491C0F91149A13999047761CA1
:10B7C0000399481E03900029F1DCFAE609280100DC
:10B7D0003031323334353637383961626364656607
:10B7E00000000000303132333435363738394142C9
:10B7F0004344454600000000F8B5044600251E46B7
:10B800001746880404D405E039462020B0476D1C53
:10B81000641EF9D52846F8BDFFB50446002581B061
:10B820001E46C80301D5302700E02027880404D530
:10B8300005E038460399B0476D1C641EF9D52846CB
:10B8400005B0F0BD4A68002A06D00A68531C0B6098
:10B8500010704868401E486070470A68531C0B60AF
:10B8600010707047F0B587B014216846FBF7ABF84D
:10B870001A48416B042631434163406B0527304031
:10B880003F070590012202213846FCF763F80122A8
:10B8900011463846FCF75EF8012204213846FCF7D1
:10B8A00059F8022000240125009002946946019570
:10B8B00003943846FBF794FF009502946946384696
:10B8C00001950394FBF78CFF029469463846009675
:10B8D00001950394FBF784FF07B0F0BD0010024010
:10B8E00010B5054A0349002011605060FCF7F2F8DA
:10B8F00010BD0000A5A5A5A50000002010B50D49AC
:10B9000086B00B480860047943798279C179029145
:10B9100003A91CC1C2788178009101924378027812
:10B9200005A11048FFF700FD0E4806B010BD00004D
:10B93000F02F0100140200205765416374205374F6
:10B940007564696F205625642E25642E25642E2586
:10B95000645F2530327825303278253032782530D2
:10B9600032780D00106A0020EFF3108072B60021CB
:10B97000054A064B02E09A6080F31088091D0429ED
:10B98000F9D062B6704700000068000800ED00E0E2
:10B9900010B51C4C6078012833D11B48FBF759FEC9
:10B9A00001211948FBF7C1FA1B2189041648FBF74E
:10B9B000BCFA80211448FBF7B8FA1348FBF7A1FA48
:10B9C000002060700146E06802F04FF8A06900F0C6
:10B9D00045FC00226421102000F0DAFCA061002167
:10B9E000206902F042F8606900F038FC002268210A
:10B9F000102000F0CDFC606104481021006800F0C8
:10BA0000F1FD10BDCC010020240200200C0000201C
:10BA1000F0B53E4E87B07078002875D13C4C0025BB
:10BA2000032000026560A0607068E06030782074D8
:10BA300065743046A5744230018861618178A161E6
:10BA4000C178E1610079206230463C300188616252
:10BA50008178A162C178E162007901276763A763F9
:10BA6000E56320632046FBF769FC616AE06A002217
:10BA700041432046FBF735FA2046FBF7C4FA01950F
:10BA8000244806900295039501A904970595204640
:10BA9000FBF7DDF9002800D0FEE7012080070190C8
:10BAA0001D480690029503950497059501A918482D
:10BAB000FBF7CDF9002800D0FEE702220023114653
:10BAC00013480095FBF7F2F9002201211048FBF71B
:10BAD0001FF91B21002289040D48FBF719F90722E1
:10BAE00080210B48FBF714F9012100224902084884
:10BAF000FBF70EF90648FBF796FD08487770022120
:10BB0000006800F06FFDB56007B0F0BDCC0100200B
:10BB100024020020FF070000FFFFFF1F0C00002091
:10BB200010B51B4919480860042000F073F8022082
:10BB300000F0FCF8002000F071F90020154C0246DE
:10BB400060700421102001F056FFE0600022042103
:10BB5000102001F050FF206100226421102000F02D
:10BB600017FCA06100226821102000F011FC606128
:10BB7000094A0021094800F0B9FD074AE061243272
:10BB80000021074800F0B2FD206210BD00640040B3
:10BB900024020020CC0100202CE700082DBF000863
:10BBA00029BF00080148407870470000CC01002000
:10BBB000114C0525A4B02D0732226946206902F0F8
:10BBC00097F8012801D0012210E0009A01A811463F
:10BBD000403101F0DBF9002803DD81B201A800F05B
:10BBE000E7F90099606900F069FB0022012128460D
:10BBF000FBF7B0FEE0E70000CC01002004494A78E2
:10BC0000012A03D0002800D00120087070470000EE
:10BC1000CC010020F0B52949497801293BD02749BA
:10BC20000127052642311D22D1241E250300FFF7DE
:10BC30008FFB0E0A0D18252C2E33353C231C1A10B1
:10BC40000832322000E01920088021E01920088005
:10BC500015E0082008801B208870C420C8701C20B4
:10BC600029E00E8014E00420EEE70E801320887097
:10BC70008B20C87014201EE00320E5E70E800E2004
:10BC800088706820C8700F2015E00220DCE70F8064
:10BC90008A70CC700D71F0BD0F80F0E70F80082026
:10BCA00088704120C870092005E00F800620887048
:10BCB0003420C87007200871F0BD0000CC010020BE
:10BCC0000B4A53780022D243012B05D0022803D31C
:10BCD000022901D3802901D910467047044A022362
:10BCE000423213804B1E9370D07011710020704748
:10BCF000CC01002010B50C4B5C780023DB43012CF9
:10BD000007D0002805D0022903D3022A01D3802AB4
:10BD100001D9184610BD044B42331880501E98704C
:10BD2000D9701A71002010BDCC01002070B51849DF
:10BD30004978012919D0164902253C3107240128E8
:10BD40000DD001220823022810D00426032813D086
:10BD5000032404280A8016D08D70CB7004E00D8077
:10BD6000062088701620C8700C7170BD0A808C7017
:10BD70001520C8700B7170BD0A808E700E20C870BF
:10BD80000520087170BD8C700A20C8700E7170BDDE
:10BD9000CC0100200E4A53780022D243012B07D059
:10BDA000002805D0002903D0202801D8102901D966
:10BDB00010467047064A01233C321380012901D9FD
:10BDC0004B1E00E001239370D0701171002070476A
:10BDD000CC01002010B5104B5C780023DB43012C14
:10BDE0000BD0002809D0002907D0002A05D0202830
:10BDF00003D8202901D8102A01D9184610BD064BB6
:10BE00003C331880012A01D9501E00E001209870AF
:10BE1000D9701A71002010BDCC01002004494A7865
:10BE2000012A03D0002800D002204860704700009B
:10BE3000CC01002031B50F4CE06801F08EFB0028EA
:10BE40000AD0EFF3058000280CD000231A4669467B
:10BE5000E06801F0CCFE0BE0042000F0D9F80020EF
:10BE6000C04338BD00231A466946E06801F033FE3E
:10BE7000012038BDCC010020284C05258CB02D07B1
:10BE800032220BA9E06801F033FF012801D0012222
:10BE90001AE069462248FBF7EFF82148FBF790F9D2
:10BEA000002802D00598002813D0059801282CD02E
:10BEB000E06801F052FB002827D0012300220BA9E3
:10BEC000E06801F008FE002202212846FBF742FD4F
:10BED000D6E70B9A124811464031FAF794FF002832
:10BEE0000B99A06906D000F0E9F901210DA000F03E
:10BEF0005FF8C5E700F0E2F9002202212846FBF7CF
:10BF000029FDA068401CA060BAE7012105A000F04F
:10BF10004FF80B99A06900F0D1F9D4E7CC010020CB
:10BF20002402002007000000FFF742FEFFF7A4FFF5
:10BF300010B51B4C0120607000220421102001F07C
:10BF40005AFD606000220821102001F054FDA0601D
:10BF500000228C21102000F01BFA206100224021D9
:10BF6000102000F015FA0121E0600022084600F0E0
:10BF7000BDFA002260611146012000F0B7FAA0610D
:10BF8000084A0021084800F0B1FB064AE06124326B
:10BF90000021064800F0AAFB206200F0EDFF10BD72
:10BFA0006400002074E6000859D40008ADD30008EE
:10BFB000F8B5164C06460D46206900F0D1F9002868
:10BFC0001FD00021206900F001F90090002818D04E
:10BFD0002A463146FAF7DEFC00988030C572EFF34E
:10BFE0000580002806D000231A466946606801F0E3
:10BFF000FEFDF8BD00231A466946606801F06BFD3E
:10C00000F8BD062000F004F8F8BD00006400002030
:10C0100010B5044608280ED2FBF7A2FC064AA10080
:10C020005050FBF79DFC0146044841600121026825
:10C03000A1401143016010BD386A002018020020A1
:10C0400001480068704700001802002000B5030096
:10C05000FFF77EF910090B0D0F11131517191B1D92
:10C060001F2123252729002000BD012000BD02201B
:10C0700000BD032000BD042000BD052000BD06203A
:10C0800000BD072000BD082000BD0C2000BD102011
:10C0900000BD142000BD182000BD202000BD3020B0
:10C0A00000BD402000BD0020C04300BD00F051F89D
:10C0B0000446C83400F04DF81025052636076422E2
:10C0C0000021FF2000F0C6FA002800DDC5B200F014
:10C0D00040F8A90708D5A042F1D30446C83404218A
:10C0E0003046FBF72FFCEAE7E9060CD57D21C900B5
:10C0F0006118884201D3044607E021460A3188428C
:10C10000DDD3002202E0A806D9D501220421304661
:10C11000FBF720FCD3E7FFF727FCFBF72FFCFDF72D
:10C120008FFAFDF72FF800F01FF8FDF711F800F077
:10C130002FF8FEE710B5EFF30581002902D00524A2
:10C14000E44304E00024002801D001F013FB204662
:10C1500010BD10B5EFF30580002802D002F074F88E
:10C1600010BD02F06BF810BDEFF30580002802D07F
:10C170000520C043704705480168002902D000200F
:10C18000C043704701210160002070471401002066
:10C1900010B5EFF30580002802D00520C04310BD84
:10C1A00008480168012902D00020C04310BD06499B
:10C1B000CA691202120ACA610221016001F062FB1F
:10C1C000002010BD1401002000ED00E070B5002833
:10C1D00008D0026A002504461F4E304690430028CE
:10C1E00002D036E0002534E0EFF3058000281BD0B4
:10C1F00000292ED100221146606801F0FAFD0128C5
:10C2000027D1206A864324D1FAF778FB06462046D8
:10C21000FAF78CFC050003D12046FAF7F9FC054635
:10C220003046FAF76FFB14E0606801F01EFE01284B
:10C230000FD1206A86430CD101F0E6F92046FAF7C7
:10C2400075FC050003D12046FAF7E2FC054601F033
:10C25000E7F9284670BD00000000ED5E10B500282B
:10C2600006D0EFF30581002905D00520C04310BD9D
:10C270000320C04310BD044601F0C6F9206A8007C0
:10C28000800F206200231A461946606801F023FCE3
:10C290000128F7D0002020606061A061206A80073B
:10C2A00002D5A06801F0CAF9206AC00702D0204672
:10C2B00001F0C4F901F0B4F9002010BDF8B503266F
:10C2C000F6430D46002843D0002D41D0016A0446B4
:10C2D0002048214F88432CD1A068A84238D8E16873
