:020000040800F2
:10680000586E00204D690008F99100080F910008AA
:106810000000000000000000000000000000000078
:10682000000000000000000000000000A595000826
:1068300000000000000000000B6900080996000835
:106840005F6900085F6900085F6900085F69000808
:106850005F6900085F6900085F6900085F690008F8
:106860004DB300085F6900085F6900085F690008B0
:106870005F6900085F6900085F6900085F690008D8
:106880005F6900085F6900085F6900085F690008C8
:1068900091960008A1960008B19600085F6900086B
:1068A0005F6900085F6900085F6900085F690008A8
:1068B0005F6900085F6900085F6900080448854651
:1068C00000F0D6F800480047A7C10008C046C046FF
:1068D000586E0020084B19680868203080F309883A
:1068E000022080F31488BFF36F8F3FBCAE4608BC14
:1068F00004BC62B618470000C0000020EFF310800F
:1069000072B6704780F310887047EFF309800E4B22
:106910001A6820381060F0C044464D4656465F461F
:10692000F0C008B572B607F01BF862B60CBC11686F
:1069300008681030F0C8A046A946B246BB4680F3AE
:1069400009882038F0C81847C00000200448804754
:1069500004480047FEE7FEE7FEE7FEE7FEE7FEE746
:106960008F960008BD68000830B50B460146002030
:106970002022012409E00D46D5409D4205D31D4645
:106980009540491B2546954040191546521E002D3D
:10699000F1DC30BD03460B439B0703D009E008C977
:1069A000121F08C0042AFAD203E00B780370401CBF
:1069B000491C521EF9D27047D2B201E00270401C4D
:1069C000491EFBD270470022F6E710B513460A466F
:1069D00004461946FFF7F0FF204610BD421C01781F
:1069E000401C0029FBD1801A70470321001D401E66
:1069F000037812021A43491EF9D510467047034620
:106A000003220870000A491C521EFAD51846704726
:106A1000F0B51FB40646002082B00546402401911F
:106A200000901BE0019922460F46304600F042F8E4
:106A3000049A059B801A994110D3104619462246A4
:106A400000F028F8361A8F410197224601200021D4
:106A5000009F00F01FF838184D4100902046641E3A
:106A60000028DFDC019B00982946324607B0F0BDC4
:106A7000064C0125064E05E0E36807CC2B430C3C91
:106A800098471034B442F7D3FFF71CFF20E8000802
:106A900040E8000810B5202A04DB0146203A914066
:106AA000002010BD914020239C1A0346E340194367
:106AB000904010BD10B5202A04DB0846203AD04093
:106AC000002110BD0B46D340D0402024A21A914093
:106AD0000843194610BD70B58C180578401C6B072B
:106AE0005B0F01D10378401C2A1106D10278401CAB
:106AF00003E006780E70401C491C5B1EF9D12B0781
:106B000005D40023521E0DD40B70491CFAE70378FC
:106B1000401CCB1A921C03E01D780D70491C5B1CB5
:106B2000521EF9D5A142D8D3002070BD01460A6893
:106B30000020002A02D0104612680A607047002028
:106B40007047000010B509480949406D80004018A1
:106B50000521C9014018006CFF30FF300230416848
:106B60000448C06805F0F2FB002010BD540A002064
:106B7000D40700206400002010B5064800210170F1
:106B8000C06805F06BFB0146034803F079F800206C
:106B900010BD000064000020D40700207CB5154C17
:106BA00005460E46E06805F023FC00280DD0009550
:106BB00030680190EFF30580002808D000231A46C2
:106BC0006946A06807F045F807E029460AE0002377
:106BD0001A466946A06806F0B0FF0021E06805F09B
:106BE0003DFB0146044803F04BF8034802F0F4FF74
:106BF00000207CBD64000020D407002010B50348AD
:106C0000406905F00FFD002010BD00006400002069
:106C10008369C26900219A4205D241698368514360
:106C2000C918521CC2610846704772B6FEE70000E0
:106C300030B51A4C3523026817491B01A24200D116
:106C400017498032016414681F252D04AC43858EDA
:106C50002D042C4314600A4670324264026880326C
:106C600014680F252D06AC43058F2D062C431460A8
:106C70000A46B0328264D832C264132252018A18A2
:106C800002654F22D2008A1842650022C81800E02F
:106C900004C18142FCD330BD00B400400068004014
:106CA00050B70040F0B58D680C692C4360C90839B5
:106CB000002E16D00126B60735432C438E69CD69C8
:106CC0000F8C35434E693F063E4335438E89406DF8
:106CD0003604354348267343C01830C000230B4F99
:106CE0000EE0AD04E9E7D418E678D55C3606354306
:106CF000A6786478360424022643354320C01B1D41
:106D0000CC683C5D9C42EED8F0BD000020E7000856
:106D1000F7B55C22125CCB0582B00193012A08D042
:106D2000022A06D0016E022211430166012005B03D
:106D3000F0BD0668B26DCB0400930B049C460B02B9
:106D40004F078D068C039E46002F01D0D7071BD01E
:106D50006F0F01D0970717D5019F7F0F01D05707FD
:106D600012D5009F3F0F01D017070DD563465F0F67
:106D700001D0D70608D5A70F01D0970604D57346D2
:106D80009F0E05D0570603D4F76D01231F43F76507
:106D90004B0701D0D3071BD16B0F01D0930717D43A
:106DA000019B5B0F01D0530712D4009B1B0F01D036
:106DB00013070DD463465B0F01D0D30608D4A30F8D
:106DC00001D0930604D473469B0E06D0520604D518
:106DD0000268D36D02242343D3650A0605D50268F1
:106DE0008032D36D049C2343D365CA0505D5026860
:106DF0008032136E049C234313660068426D0A437D
:106E00004265002093E770B504464030007F0228B9
:106E100002D0206E082107E020688030436C9B027E
:106E200006D5206E0121490208432066012070BD6D
:106E3000406C8003850F2B462046FFF733FF01206F
:106E40002168A8408031C864A065002070BD10B5DD
:106E50005C22125C012A07D0022A05D0016E0222B0
:106E600011430166012010BD0A68002A0ED00A7B7A
:106E70000B6952071A430B7A4C6949689B07406CAF
:106E80002343C90040180CC0002010BD0B7A4A698A
:106E90009B071A430B7B0C8ADB06240449682343B7
:106EA000006C1A43890040180260EDE730B55C259C
:106EB0002D5C039C012D05D0016E04221143016657
:106EC000012030BD0901920011435A0011430068AE
:106ED0002143803002689209920111430160002031
:106EE00030BD5C231B5C012B05D0016E04221143D5
:106EF0000166012070470902006811438164002087
:106F0000704710B504000ED000F0B1FB2068C16DD1
:106F100089088900C165204600F0F0FA002020664B
:106F20004034207710BD012010BD30B55C22125CCA
:106F30000224012A06D0022A04D0016E21430166F0
:106F4000012030BD0268536D8B4353650B06002250
:106F5000002B02DA03688033DA65C90502D50168BF
:106F600080310A6603685A6D996D550701D0CD07C7
:106F700025D095066D0F01D08D071CD5D5056D0F59
:106F800001D04D0717D5D5042D0F01D00D0712D50F
:106F900015046D0F01D0CD060DD59503AD0F01D0B1
:106FA0008D0608D51502AD0E01D04D0603D5DD6D59
:106FB0006D086D00DD65530701D0CB0721D1930625
:106FC0005B0F01D08B071CD4D3055B0F01D04B079F
:106FD00017D4D3041B0F01D00B0712D413045B0F7B
:106FE00001D0CB060DD493039B0F01D08B0608D4A0
:106FF0001202920E01D0490603D40068C16DA1436C
:10700000C165002030BD5C21095C012905D0016EFD
:10701000042211430166012070470068C168012203
:10702000D2051143C160002070470000F8B5054645
:107030000068406C104C00060027002802DA01208E
:10704000A06016E0286E01214905884203D0286E11
:10705000490088420DD100F085FC0646E068864272
:1070600007D3012105A004F0E7FFA068A76030184E
:10707000E0602F66F8BD0000C80100200700000096
:107080000122D204914204D1006881694908490073
:10709000816170470068406C4207520F0A604205E8
:1070A000520F4A60182202408A608206D20FCA60DC
:1070B0004206D20F0A610206D20F4A610205D20FC0
:1070C0008A61C204D20FCA618204D20F0A624204EA
:1070D000D20F4002400E4A628862002070470000D2
:1070E000F0B59C465C231B5C0024022B03D0016E90
:1070F0000822114356E0FF250135036840293ED0A0
:1071000080339E6936074BD09D69ED0103D51D681C
:10711000ED0500D501249B699B059B0F1D19C46CCF
:1071200048236B43E41801262368B60733405360B5
:1071300023683AD0DB00DB0813600126236876075A
:107140003340936023687612DB0FDB071361A3885B
:107150009BB2D36163681B031B0FD360636833402A
:1071600053616368760033409361636800265B0077
:107170005B0E13626368DB0F083453621CE08033DC
:107180001E6936070CD01D69ED0103D51D68AD05DC
:1071900000D501241B699B059B0F1D19846CBFE75B
:1071A000016E294301660120F0BDDB005B0DC3E7E2
:1071B000A75D63469F55761C074FD368FB5CB342BF
:1071C000F6D80068402903D08030C5610020F0BDAA
:1071D00080304561FAE7000020E700080068803051
:1071E000406C4007400F70477047F0B50446006898
:1071F0008BB0016D072292021140426D0A40069247
:10720000016D4A07416D520F11400591016D382201
:107210001140426D0A400492016DF1221204476D43
:1072200011400F40016D072252041140426D0A4087
:107230000292456D016DCE43710607D4E9434906BC
:1072400004D4402101652046FFF7CEFFF0050ED49F
:10725000E843C0050BD4206802468030836D016E80
:10726000FF20194001301065204600F038FA0698DA
:10727000002805D0216808652046069900F03EFAEE
:107280000598002805D0216808652046059900F07A
:10729000A9F90498002805D02168086520460499BA
:1072A00000F0CEF9B00509D4E843800506D40120EA
:1072B000216840020865204600F021FA30060DD40E
:1072C000E84300060AD4206802468030436DC16D51
:1072D000194080201065204600F002FAB00409D45D
:1072E000E843800406D40120216840030865204655
:1072F00000F0F4F9300409D4E843000406D4012076
:107300002168C0030865204600F0E7F970040AD43C
:10731000E843400407D40120216880030865206EFB
:107320008021084320660298002805D0216808655E
:1073300020460299FFF7A4FE002F04D020680765BD
:10734000206E38432066206E002802D02046FFF7CA
:107350006DFE0BB0F0BD0000F8B5040005D0254669
:107360004035287F002802D006E00120F8BD00202B
:107370006877204600F0DEF820688169102291438A
:10738000816100F0EFFA0746012604E000F0EAFA16
:10739000C01B0A2810D8206880690007F6D420682E
:1073A00081693143816100F0DDFA07460AE000F0AF
:1073B000D9FAC01B0A2805D9206E30432066032065
:1073C0002877D2E720688069C007F0D020688169FB
:1073D00002221143816147482168814202D1464916
:1073E00060680860207C40210128206882693AD0CA
:1073F0000A438261607C0121890301282068826937
:1074000033D08A438261A07C0121090301282068CE
:1074100082692CD00A4382612168886903221202A2
:107420009043A2681043886120688169A422914337
:10743000816121680A69102082430A61E16801299B
:1074400017D000291DD02022022916D021688B696F
:1074500080273B438B6121680B6903430B61E06824
:1074600003280AD00DE08A43C3E70A43CAE78A43E8
:10747000D1E720688169042201E020688169114315
:107480008161207E7F21400649064018E16909029A
:10749000FF3901390843216A491E0843A18A0A04B9
:1074A00001210904521A10432268D0610320A26806
:1074B0000002824210D1E26AA06A1202FF3A401E24
:1074C000013A1043226B1201103A1043A28C1204AD
:1074D000511A08432168C86020688030016CE26B53
:1074E000114301642046FFF7A3FB0020A06520663E
:1074F0002E77F8BD006400400065004010B50068BC
:10750000094988420FD10948C16B82149143C16374
:1075100003210902064800F0F3F8152000F0BCFA38
:10752000162000F0B9FA10BD0064004000100240BF
:107530000004005010B59AB00446142113A8FFF7B8
:1075400042FA4C216846FFF73EFA224920688842F9
:107550003ED101204006002400901294684601F0BC
:1075600043F8002801D0FFF760FB1B48C26B811471
:107570000A43C263C26B0A401892426B02210A435B
:107580004263406B13AA084018900320000213C204
:1075900003201690179013A9104800F023F9104803
:1075A00001688200114301600168C200114301605B
:1075B00000220321152000F08BFA152000F07CFA40
:1075C00000220321162000F083FA162000F074FA3E
:1075D0001AB010BD006400400010024000040050CA
:1075E0000000014030B505469BB0C80718D0134CC9
:1075F0000021A06904F032FE1A90031E12D01A4630
:10760000403240212846FFF76BFDA06904F0F0FEF0
:1076100000280ED000231A461AA9606906F019FB4B
:107620001BB030BD6B4610AA40212846FFF758FD1D
:10763000F6E71A99A06904F089FEF1E7C801002075
:107640007047014640310A7F012A05D0016E0422AD
:10765000114301660120704702220A7701688A6996
:10766000520852008A610021016608467047F0B551
:107670000024014640310A7F022A04D0016E08220C
:10768000114301660DE003689D69012215439D6168
:107690000325036808E00A2C05D9036E134303662B
:1076A0000D770120F0BD641C9E69F607F3D09E693A
:1076B00000241027BE439E61036802E00A2CECD828
:1076C000641C9E693607F9D49C6902252C439C6191
:1076D000002383650A771846F0BD704770477047EE
:1076E00010B5044900208860012103A004F0A4FC27
:1076F00010BD0000C80100200D0000007047704759
:10770000F0B500235FE001249C4022460A4059D096
:107710009E082F4DB60075192F6EAC469D07EE0ED4
:107720000F25B540AE463D4005273F07B84201D181
:10773000002714E0274FB84201D101270FE0264F60
:10774000B84201D102270AE0244FB84201D10327F1
:1077500005E0234FB84201D1042700E00527B740D8
:10776000AF4214D11A4E803635689543356075683E
:1077700095437560164E75689543756035689543F9
:10778000356065462D6E72469543624615660568FE
:107790005E000322B24015430560DD08AD002D18E0
:1077A0002E6AAC465D07EF0E0F25BD40AE43654621
:1077B0002E628568954385604568A5434560C46829
:1077C0009443C4605B1C0A46DA409CD1F0BD0000C3
:1077D000001802400004005000080050000C005047
:1077E00000100050F0B5002303249DE001259D40CA
:1077F0002A4072D00E79B607B60F012E01D0022EA4
:1078000016D186682746B4465E00B646B74066463F
:10781000BE43B446CF687646B74066463743876076
:107820004668AE430D79ED06ED0F9D40354345604A
:107830000D79ED43AD0708D0C5685F002646BE4010
:10784000B5438E68BE402E43C6600D79AD07AD0FBF
:10785000022D0ED1DD08AD002D18AC462D6A5E0755
:10786000F60E0F27B740BD430F69B7402F4365465B
:107870002F6205685F002646BE40B5430E79B60705
:10788000B60FBE402E4306604D68AD03AD0F4AD023
:107890009E08284DB6007519AC462D6E9E07F60E53
:1078A0000F27B740BD4305273F07B84201D1002746
:1078B00015E0214FB84201D1012710E01F4FB84217
:1078C00001D102270BE01E4FB84201D1032706E089
:1078D0001C4FB84202D1042701E024E00527B7403D
:1078E0002F43144D664637662D684E689543F60261
:1078F00000D515430F4F3D607D684E689543B60235
:1079000000D515437D600B4E803675684F689543F2
:10791000BF0300D51543756035684F689543FF0375
:1079200000D5154335605B1C0A681546DD4000D064
:107930005CE7F0BD00180240000400500008005051
:10794000000C005000100050426913460B401B040D
:1079500091430B4383617047002A01D081617047D6
:10796000816270470148806870470000B0000020C5
:10797000024881680278891881607047B000002051
:1079800010B50848002401688215114301600120E8
:1079900000F00AF8002801D0012401E000F052F8BC
:1079A000204610BD0020024030B505461F4887B074
:1079B0000268012109040A4302600068084000903F
:1079C00005A901A800F0FCFF0498002815D001F0DB
:1079D00013F840001649FEF7C7FF411E1648154A26
:1079E0000260164AC26041600021016181608161CC
:1079F00001F07DFA040003D015E000F0FDFFE9E797
:107A00000D4801F09BFA04000DD1142000F054F849
:107A1000042D07D200222946142000F059F8084806
:107A2000056000E00124204607B030BD4010024050
:107A300040420F000040014088020020E7030000A0
:107A4000B40000203EB5002412480094019401685F
:107A50000122114301600068104002900D48403837
:107A6000C26B01040A43C263C06B002208400321B9
:107A70000290481F00F02CF86C200090019468469A
:107A800000F044FD00F0A0FD0320400201F022FAC6
:107A90003EBD000040100240002809DBC106C90EAF
:107AA0000120884003490860BFF34F8FBFF36F8FF9
:107AB0007047000080E100E0002805DBC106C90E28
:107AC00001208840014908607047000000E100E0A3
:107AD00010B503F0A5FC10BDBFF34F8F0449034858
:107AE000C860BFF34F8F00BFFDE700000400FA0538
:107AF00000ED00E010B50523DB010122C318016889
:107B00005A650B240023A40100190373486D104328
:107B10004865486D022210434865184610BD0000B4
:107B2000F8B505460520C0010E4C06272E18002981
:107B30000BD0012908D1F06D02F078FCE87A00281A
:107B400002D0206938432061F8BDE87A002804D0CB
:107B500001F066FD2069B8432061F06D02F0F0FB92
:107B6000F8BD000000ED00E010B50C0606D5490791
:107B7000490F282461430818143004E02824614385
:107B80000818FF30553099B2002A06D0012202733E
:107B90000181190C4181002010BD00220273C180B7
:107BA000F9E728224A4310B512180523DB01C01853
:107BB000926AC06D02F07CFA10BD28224A43121866
:107BC00010B50523FF32DB010132C018926EC06D83
:107BD00002F0C6FA10BD70B5CD094907490F0A4633
:107BE00028235943091801230024002D02D04B7586
:107BF000143102E0FF3155314C700A700522D20178
:107C000085182A7D012A06D02B75006802F0B0FF86
:107C10002C75002070BD022070BD70B50A07037975
:107C2000120F9A4201D9012070BDCD094907490FB1
:107C30000A4628235943091801230024002D02D0A5
:107C40004B75143102E0FF3155314C708C700A7065
:107C50000522D20185182A7D012A06D02B750068DD
:107C600003F024F82C75002070BD022070BD0000C8
:107C7000F8B50C460646174600680978520427D521
:107C800001F060FCA1690546A94203D3481BA0612D
:107C900002D00DE00020A0612078326881005058A9
:107CA000224B184001235B035840214B184350508E
:107CB000780609D520783268810050581D4B18404D
:107CC0001B4B403318435050002D2DD0228926E005
:107CD00001F048FCA1690546A94203D3481BA061F5
:107CE00002D00DE00020A061207832688100505859
:107CF0000E4B184001235B0358400D4B1843505066
:107D0000780609D42078326881005058094B184011
:107D1000074B403318435050002D05D062896169EC
:107D20002B46306803F0D4FA2846F8BD8FBFFF0712
:107D3000808000008F8FFF07F7B5064602980F4638
:107D40000C4642062037CC4D09783068002A71DA9B
:107D500001F0F8FBA169814214D9091AA16113D07D
:107D6000029949040AD5217833688A0099589C46BB
:107D7000C24B1940C24B19436346995039790129C6
:107D80004AD068E10020A0616078002802D0012874
:107D90000FD039E02078C0004019016889018909B5
:107DA00001602078C000401901680122D207114308
:107DB00009E02078C0004019016889B2016020788C
:107DC000C0004019016801606078002802D00128D5
:107DD0000FD019E02078C000401941688901890955
:107DE00041602078C000401941680122D207114348
:107DF00009E02078C0004019416889B241602078CC
:107E0000C00040194168416021783046FFF7C9FE43
:107E10000298400473D41EE1616909186161E16947
:107E20000918E1612269216A914204D31046091AB6
:107E3000216206E049E0002909D000223A71084693
:107E400022626178002905D001292ED03AE0002174
:107E50003971F6E72178C90049190A689201920937
:107E60000A603E280CD94109C20600D1491E227879
:107E7000D2005219136889060125ED0729430AE04B
:107E800000280BD04108C20700D0491C2278D2003C
:107E90005219136889060B43136013E02178C90057
:107EA00049190A680123DB070AE02178C90049194A
:107EB0000A6892B20A602178C90049190A68030465
:107EC0001A430A6083B22289C1E001F04BFBA16929
:107ED000814215D3091AA16114D0029949040AD428
:107EE000217832688B00D1589C46644B1940644B12
:107EF00019436346D1503979012954D0ABE048E0A9
:107F00000020A0616078002802D001280FD039E05D
:107F10002078C00040190168890189090160207832
:107F2000C000401901680122D207114309E02078FE
:107F3000C0004019016889B201602078C000401972
:107F4000016801606078002802D001280FD019E094
:107F50002078C00040194168890189094160207872
:107F6000C000401941680122D207114309E020787E
:107F7000C0004019416889B241602078C0004019B2
:107F80004168416021783046FFF70BFE02984004BB
:107F900061D42078326881005058384B1840384BF3
:107FA0001843505057E0616909186161E169091887
:107FB000E1612269216A914203D31046091A2162C4
:107FC00005E0002902D0084600212162397161785C
:107FD000002902D001292BD037E02178C9004919A6
:107FE0004A68920192094A603E280CD94109C206AA
:107FF00000D1491E2278D200521953688906012502
:10800000ED0729430AE000280BD04108C20700D041
:10801000491C2278D2005219536889060B435360D9
:1080200013E02178C90049194A680123DB070AE0F7
:108030002178C90049194A6892B24A602178C9007A
:1080400049194A6803041A434A60628983B2616924
:10805000306803F083F92078316882008858074B34
:10806000303318401023584020235840054B184304
:1080700088500020FEBD0000009800408F8FFF0751
:1080800080C00000808000004907490F282251432A
:108090000818FF300130006F7047F8B5CD09490767
:1080A000490F0F4628246143091801260024002D9A
:1080B00002D04E75143102E0FF3155314C700F7013
:1080C0000A61CB70022B00D10C710522D2018518F8
:1080D0002A7D012A06D02E75006802F0F7FB2046A3
:1080E0002C75F8BD0220F8BD10B54C07640F28218F
:1080F00061430918FF3155318B614A610022CA6121
:108100004A700C70006802F02BFE002010BD70B5A4
:108110004B0702795B0F934201D9012070BDCD0955
:1081200000240122002D05D02821594309184A7541
:10813000143105E0282569430918FF3155314C7089
:108140008A700B700523DB01C5182B7D012B06D02F
:108150002A75006802F0E8FD2C75002070BD022031
:1081600070BD70B54C07640F282161430918CB62BC
:108170008A62012238256A544B6300230B634A75D7
:108180000C750068143102F0EBFD002070BD00009A
:1081900070B50446006803F099F84749096A490731
:1081A00004D5010403D5204601F028F870BD41052F
:1081B0000CD52068416C414A11404164204600F0D2
:1081C00017F90021204600F045F970BD410403D5A0
:1081D0002068416C3A4A6CE0810403D52068416C08
:1081E000384A66E00B218901C5040422082361187E
:1081F000002D17DA2068056C954305642068026C31
:108200009A430264087B012805D1002008730146C7
:108210002046FFF785FC204600F0FEF82068416C00
:10822000294A46E005050DD52068016C1943016413
:108230002068416C254B194041642068016C114352
:10824000016409E0050623D52068456C204E3540C1
:108250004564087B002803D0204600F043F970BD38
:108260002068056C154305642068026C1A4302649B
:10827000012008732068406D3C21800808400521DA
:10828000C9016118086501212046FFF749FC70BD4E
:10829000810508D52068416C0E4A11404164204692
:1082A00000F0D0F870BDC005FCD52068416C084ACC
:1082B000803A1140416470BD80000140FFFB000026
:1082C000FFBF0000FFDF0000FFEF0000FFF700002E
:1082D0007FFF0000FFFD0000F8B5040007D0052077
:1082E000C0012618707D0025002802D005E001207D
:1082F000F8BD3575204600F03DF803207075206804
:1083000002F0CCFC002001270AE028214143091992
:108310004F750875CD754D628D62401CC0B2CD623F
:1083200021798142F1D800220FE028205043001922
:108330000146FF3141314D750A75FF300130CD7571
:1083400045668566521CD2B2C56620799042ECD84B
:10835000207C694608700FCC103C02F08FFC6574DD
:108360007775207B012802D12046FFF7C3FB002050
:10837000F8BD000030B595B004464C216846FEF7C4
:1083800022FB1949206888422CD101200006C51221
:1083900000901195684600F027F9002801D0FEF7FB
:1083A00044FC124CE06B2843E063E06B28401390E0
:1083B000E06BC0000CD4E06B25042843E063E06B65
:1083C0002840139000F008F9E06BA843E06301E057
:1083D00000F002F9002202210820FFF779FB0820B3
:1083E000FFF76AFB15B030BD005C00400010024092
:1083F00070B50446C0790125022801D0FEF715FCAE
:108400000520C00124182946E06D01F0B3FFE06D9E
:1084100001F065FF70BD000010B50446C07A002869
:1084200006D00748016906229143016101F0F8F87E
:108430000520C0012018C06D01F082FF10BD0000B2
:1084400000ED00E0052110B5C9014018C06D01F034
:1084500081FF10BD10B50522D2018418227D012AAA
:1084600008D0012222754174006802F068FF0020E4
:10847000207510BD022010BD052110B5C90141189D
:10848000CA6DA72189004118104601F081FF10BD77
:1084900070B504460520C0012518287D01280AD0A2
:1084A00001202875206802F009FF206802F0D8FB3F
:1084B0000020287570BD022070BD70B504460520EF
:1084C000C0012518287D01280AD0012028752068C0
:1084D00002F0E4FB206802F0CAFB0020287570BDA2
:1084E000022070BD10B504460520C0012018C06DE3
:1084F00001F09CFFE07A002804D0034801690622BD
:108500001143016110BD000000ED00E010B5194AF3
:1085100051687E23994303681943516016494A689C
:1085200001231B049A434A600A689A430A60124A6C
:10853000803A54689C43546014689C4314604468B7
:10854000E40302D50C681C430C604468A40302D504
:108550004C681C434C600179C90702D0116819436B
:1085600011600079800702D55068184350600020E0
:1085700010BD0000007000408018024010B50F4C84
:10858000216803225202914301432160C11FFF3938
:10859000FA390ED10A480621006848430949FEF716
:1085A000E3F9401C02E0002805D0401E616949053E
:1085B000F9D4002010BD032010BD00000070004061
:1085C000BC00002040420F000248416801221143D4
:1085D0004160704700700040024841680215114335
:1085E0004160704700700040FEB5044600680027F7
:1085F000984D994E800355D500200090F06BC00037
:1086000007D4F16BA8050143F163F16B0140012030
:10861000009092480168821511430160FFF7A2F9AA
:10862000019005E0FFF79EF90199401A022825D82C
:108630008A480068C005F5D5E869032109020840A9
:108640000FD0216C81420CD0E86903210902EA694C
:108650008843012109040A43EA61EA698A43EA611D
:10866000E861C0070FD0FFF77DF9019008E0FFF740
:1086700079F90199411A7A48814201D9032709E021
:10868000E8698007F3D5E869032109028843216C72
:108690000843E8610098002804D0F16B012000072E
:1086A0008143F1632078C00705D06869616880085C
:1086B0008000084368612078800705D568690C212F
:1086C0008843A168084368612078400705D5686938
:1086D00030218843E168084368612078C00606D5E8
:1086E00068690321890288432169084368612088F9
:1086F000C00406D5686903210902884361690843FB
:1087000068612088800506D568690321890488434B
:10871000A16A084368612088400506D5686903217D
:1087200009058843E16A084368612078800606D518
:108730006869032109038843A169084368612078B7
:10874000400606D56869032189038843E169084327
:108750006861208840040ED56869216B800080081C
:10876000084368610121206B8907884203D1F068C2
:1087700089130843F0602068000305D5686940212B
:108780008843616B084368612068810235480BD5D6
:1087900069698210A36B914319436961A16B91428E
:1087A00002D1F1680143F160216849020AD5696983
:1087B000E26B814311436961E16B814202D1F1684F
:1087C0000143F160218809050DD5A969226A89084C
:1087D00089001143A961216A012904D1F1680122AC
:1087E00012041143F160218889040DD5A9690C2276
:1087F0009143626A1143A961616A042904D1F16855
:10880000012212041143F1602168C9010ED5A96942
:10881000032212039143626C1143A9610122616C2E
:108820005203914202D1F1680143F160216889014C
:108830000DD5A969032212029143A26C1143A961CB
:10884000A26CD11FF93902D1F1680143F1603846B9
:10885000FEBD0000401002400010024000700040C9
:108860008813000000000001F8B50F46060043D051
:108870004D4D28684007400FB84213D22868C00801
:10888000C00038432860FFF76DF8044605E0FFF7A5
:1088900069F8011B4548814261D828684007400FAC
:1088A000B842F4D13068424C81070DD5400704D559
:1088B000A068072109030843A060A0680F210902EE
:1088C0008843B1680843A0603078C00732D0706830
:1088D00001280AD002280BD000280FD0344940319B
:1088E00003280ED0C969890704E02168890301E0E3
:1088F00021688901002906DB0120F8BD21684905AE
:10890000F8E7096AEFE7A168C908C9000143A16057
:10891000FFF728F8009006E0FFF724F80099411AC5
:10892000224881421BD8A068382108407168C900DC
:108930008842F1D128684007400FB84217D91A4839
:108940000168C908C90039430160FFF70BF8054603
:1089500007E0FFF707F8411B1448814201D90320C3
:10896000F8BD114800684007400FB842F1D1307897
:10897000400706D5A068072109038843F16808432A
:10898000A06000F04DF8A1683C2289091140094A15
:10899000515CC906C90EC84007490860074800680D
:1089A000FFF702F8F8BD0000002002408813000025
:1089B0000010024030E70008BC000020B400002096
:1089C00010B5072202600A4A93685B075B0F436099
:1089D00093680F24240223408360926807231B03BB
:1089E0001A40C260034800684007400F086010BD8D
:1089F00000100240002002400648074900688968CC
:108A0000064A4904490F8900515CC906C90EC8408D
:108A100070470000BC0000200010024070E7000812
:108A200010B51C4CA0688006410F1B4815D0A168EA
:108A30008906490F01290FD0A1688906490F02292B
:108A400011D0A0688006400F04281DD0A0688006C1
:108A5000400F03281BD0002010BD216889044A0F55
:108A6000012191400DE0E168E1684906490F491C88
:108A7000FDF77AFFE1684904490E4843E168490F70
:108A8000491CFDF771FF10BD0120C00310BD7D2002
:108A9000000210BD001002400024F400F8B50400EC
:108AA0007ED020783827C007FE4D002846D0A86821
:108AB000E96838408907890F102802D008280BD0B0
:108AC00001E0032908D001206268000482420AD133
:108AD00029680143296015E0286880032ED5606865
:108AE0000028DDD02AE0052301211B0489049A42D5
:108AF0002A6802D10A432A60EAE782432A6028688A
:108B000088432860606800280CD0FEF72BFF0646DB
:108B100004E0FEF727FF801B642873D828688003D1
:108B2000F7D50BE0FEF71EFF064604E0FEF71AFF3E
:108B3000801B6428F1D828688003F7D42078800748
:108B400069D5A868E96838408A070721920FC902E9
:108B5000102802D0002813D001E0022A10D0E068CB
:108B6000002846D02868884321690843286028687F
:108B7000FF21013108432860FEF7F4FE06462CE091
:108B80002A68520502D5E268002A89D06A687F23E4
:108B90001B029A4363691B021A436A60002800E0C3
:108BA0008DE00ED128688843216908432860286831
:108BB00001218004400F8140BB48FDF7D5FEBB4931
:108BC0000860BB480068FEF7EFFE002877D122E07E
:108BD000FEF7C8FE801B02289FD828684005F7D5FD
:108BE00068687F2109028843616909020843686057
:108BF00011E02968FF20013081432960FEF7B2FEB1
:108C0000064605E0B5E0FEF7ADFE801B022884D8DD
:108C100028684005F7D42078A64E00072ED5A8680E
:108C20008006400F03280AD0A0690028306A16D0B9
:108C3000012108433062FEF795FE07460BE0306ADB
:108C400080071BD5A06900289FD017E0FEF78AFE99
:108C5000C01B0228C0D8306A8007F7D50EE0400854
:108C600040003062FEF77EFE074604E0FEF77AFE23
:108C7000C01B02287DD8306A8007F7D420784007CF
:108C80006BD5A86800278006400F042818D0E86B31
:108C9000C00008D4E96B012000070143E963E96BD8
:108CA00001400127009184480168C90519D4016871
:108CB000821511430160FEF755FE00900DE083E040
:108CC000F069800749D5A06800287DD045E0FEF70F
:108CD00049FE0099401A02284BD877480068C00521
:108CE000F5D5A168012910D004200529F16911D01A
:108CF00049084900F161F1698143F161A0680028E8
:108D000016D0FEF72FFE00900EE0F0690121084317
:108D1000F061F3E70143F161F7E7FEF723FE009905
:108D2000411A6648814224D8F0698007F5D50DE0E4
:108D3000FEF718FE009006E0FEF714FE0099411AB7
:108D40005E4881427FD8F0698007F5D4002F04D0B7
:108D5000E96B012000078143E9632078800624D570
:108D60000120E16980050029296810D001432960AC
:108D700000E068E0FEF7F6FD064604E0FEF7F2FDCF
:108D8000801B02285FD828680002F7D50DE08143D8
:108D90002960FEF7E7FD064604E0FEF7E3FD801BD1
:108DA000022850D828680002F7D4206A002844D04E
:108DB000A9688906490F02294FD0012636060228E4
:108DC000286807D0B04300E07FE02860FEF7CAFDC6
:108DD00004463AE0B0432860FEF7C4FD074604E0CD
:108DE000FEF7C0FDC01B02282DD828688001F7D4EB
:108DF000A16A606AE26A0843216B120211430843C8
:108E0000616B0843A16B0843E9682D4A1140084390
:108E1000E860286830432860E868012109070843B2
:108E2000E860FEF79FFD044604E0FEF79BFD001B93
:108E3000022808D828688001F7D548E0FEF792FD9F
:108E4000001B022801D90320F8BD28688001F5D451
:108E5000E8681C490840E86039E00128F4D0E86877
:108E6000626A8107890F91422FD17021A26A014065
:108E700091422AD17F21E26A090201401202914205
:108E800023D11F214904226B014091421DD10721AA
:108E90004906626B0140914217D1400FA16B400718
:108EA000884211E0001002400024F400BC000020C1
:108EB000B400002040100240007000408813000001
:108EC0008C80C111FCFFFEEE01D00120F8BD002016
:108ED000F8BD000003490A6803235B029A4302437A
:108EE0000A6070470000014070477047704770B5D6
:108EF000040005D025462035687F002802D006E012
:108F0000012070BD00202877204600F016F80220CE
:108F10006877211D206800F0D3FB012240342272C3
:108F2000AA77EA7722706270A270E2702271627191
:108F3000A271E2716A77002070BD7047014620314E
:108F40004A7F012A01D00120704702224A77016836
:108F5000CB6801221343CB6000680E4988420BD0D6
:108F60009107884208D00C49884205D00B498842B5
:108F700002D00B49884207D181680A4B1940062963
:108F800005D0DB1F994202D0016811430160002027
:108F900070470000002C0140000400400008004021
:108FA000004001400700010070470000F8B504468A
:108FB0000068C66805690027A907002913DAB10708
:108FC00011D5F91E01610120207720688069800792
:108FD000204602D0FFF7E8FF04E000F08BF82046BF
:108FE00000F089F82777680716D5700714D5042094
:108FF0002168C043086102202077206880698005CD
:10900000800F204602D0FFF7CFFF04E000F072F897
:10901000204600F070F82777280715D5300713D5BC
:1090200008202168C0430861042020772068C069B7
:109030008007204602D0FFF7B7FF04E000F05AF89F
:10904000204600F058F82777E80616D5F00614D524
:1090500010202168C0430861082020772068C0697B
:109060008005800F204602D0FFF79EFF04E000F04D
:1090700041F8204600F03FF82777E80708D0F007CE
:1090800006D001202168C0430861204600F034F872
:10909000280601D4A80407D5300605D52168134851
:1090A00008612046FFF721FFE80507D5300605D502
:1090B00021680F4808612046FFF716FF680608D5AB
:1090C000700606D540202168C0430861204600F0A4
:1090D0001DF8A80608D5B00606D520202168C04393
:1090E00008612046FFF702FFF8BD00007FDFFFFFA9
:1090F000FFFEFFFF7047704710B5006802498842C5
:1091000001D1FEF735FC10BD004001407047FEE77D
:1091100070B500231D460EE0040F0A2C02D25E003B
:10912000303401E05E0037348C555C006418000177
:109130005B1C6570DBB29342EED370BD10B502F0DC
:10914000EBFB074A0021074803F018FB064C044AD2
:10915000206024320021054803F010FB606010BD40
:1091600090E60008B1950008080000203DC1000805
:1091700008B50B48426B20210A434263426B0A4008
:109180000092416B012211434163416B11400091F8
:10919000426B02210A434263406B0840009008BDC5
:1091A0000010024010B500220F49104800F057FF90
:1091B000002801D0FDF739FD0D490C4801F05EF99A
:1091C000002801D0FDF731FD0A49084800F028FDCC
:1091D000002801D0FDF729FD044801F0D3F900284B
:1091E00001D0FDF722FD10BD10000020D4070020A3
:1091F000900100209C000020FEE70000FEB5044620
:109200008FE1416C89B20F073F0F2CD0BE0081590E
:1092100089B2019109046ED58159C54A1140802255
:1092200011438151282078430519FF355535287B96
:1092300000287DD0E87802287BD028782168820039
:109240008858BC4B1840BC4B18438850297820687C
:109250008A00825852046DD500F074F900900028FD
:1092600069D02A89BBE0C90626D40268B149803991
:109270000A400121C9030A430260207D2546C1003E
:10928000AE481435081800688001800D2063A16A7B
:109290000818A06200212046FEF783FC607C0028AD
:1092A000AED0A8690028ABD1607C8021084321683A
:1092B000C8640020607434E12546FF3501685535E7
:1092C00089B20A0518D5297800F05CF9E8610346EF
:1092D000EA88A720800025682118284601F0F8FFB9
:1092E00021680868924A1040802210430860204696
:1092F000FFF7C2F815E18FE00904DCD501688C4A5C
:1093000011408022114301602978206800F03AF969
:10931000E861002814D06969002911D00346EA8861
:10932000206801F0D5FFE96968694018002103E071
:109330003FE047E04DE04BE068612046FEF73DFC32
:109340002068006880B20105B5D48004800F03282E
:10935000B1D07A4A506880018009506028693E285F
:109360000BD94109C00600D1491E53688806012166
:10937000C90708430343536009E0002815D041089A
:10938000C00700D0491C5068890608435060216816
:1093900008686B4A104001221203504052005040AE
:1093A000654A403A10430860BBE050680121C90794
:1093B000EBE72978206800F0E5F80090002813D04A
:1093C000EA880CE029462046019AFEF751FC0090FD
:1093D0000AE000F0C7F80090002805D06A896969A2
:1093E0002068009B01F074FFE86900994018E8616B
:1093F0006869009940186861A869002803D0296944
:109400000098814204D929782046FEF7D6FB03E074
:109410002946206801F0A4FC0198000628D52820E0
:109420002268474390593919424B803B1840012329
:10943000DB0318439051C87D1431012819D00198DD
:10944000C0056AD40878C2003C48101800688A69D0
:109450008001800D824259D9121A8A6158D04A6916
:1094600012184A61CA691018C861206801F078FCB6
:1094700057E000208861087B002849D00198400609
:10948000487821D5002802D0012810D040E0087883
:109490002A4AC000801803689B019B090360087872
:1094A000C000801802680123DB071A430AE008782D
:1094B000224AC000801803689BB203600878C0008D
:1094C00080180268026023E0002802D0012810D032
:1094D0001EE00878C2001948121853689B019B09C6
:1094E00053600A78D200101842680123DB071A4340
:1094F0000AE00878114AC000801843689BB24360B4
:109500000878C00080184268426001E0002088614D
:1095100009782046FEF745FB03E02046019AFEF756
:109520000BFC2068416C090400D56AE60020FEBDF2
:109530008F0FFF078F8FFF07C0800000009800404B
:109540008FBFFF0708B50A200090401E0090FCD195
:10955000C8000349401800688001800D08BD000064
:109560000098004008B50A200090401E0090FCD1F1
:10957000C8000349401840688001800D08BD000004
:109580000098004008B50A200090401E0090FCD1D1
:10959000C8000349401840688001800D08BD0000E4
:1095A00000980040704701784078000208437047F7
:1095B000002405252D0701212846FEF7C5F90221C3
:1095C0002846FEF7C1F9642002F0FCFD641C0A2C59
:1095D000F1D3012211462846FEF7BEF901220221ED
:1095E0002846FEF7B9F902F0EDFCFFF7DBFD02F0CB
:1095F000F1FA03F003FD002802D002F0CBF9FEE7F8
:10960000642002F0DFFDF4E710B50448006904F0BF
:1096100037FE012801D004F0E7F910BD00E000E0BA
:1096200030B593B03C216846FDF7CDF90024012008
:109630000F941094119440021294FEF79FFF0120A2
:109640000090000401900320099002250F200B9048
:1096500028040C90089580020D90032040070E907E
:109660000A946846FFF71AFA002801D072B6FEE79E
:1096700007200F9011940221109512940FA8FFF764
:10968000F3F8002801D072B6FEE713B030BD704782
:1096900010B50248FFF78AFC10BD000088020020C8
:1096A00010B50248FDF7A1FD10BD00002402002006
:1096B00010B50248FDF799FD10BD000024020020FE
:1096C000F0B50268244B0124A407244D244E98428F
:1096D00005D0A04203D0A84201D0B04204D1174621
:1096E000702297434A683A431E4F984210D0A042D6
:1096F0000ED0A8420CD0B0420AD01B4CA04207D0DA
:10970000B84205D0194CA04202D0194CA04204D155
:1097100003242402A243CC6822438024A2434C6940
:10972000224302608A68C2620A688262984207D055
:10973000B84205D00D4A904202D00D4A904201D164
:1097400009690163012141610169C90703D0016908
:10975000490849000161F0BD002C014000040040AF
:10976000000800400040014000200040004401404B
:109770000048014010B50A46024903A000F040FC31
:10978000004810BDB00A002043444320436F6E667A
:1097900069670000F3B505460520C0012E18726DFB
:1097A000B16C920052191218146C81B0002C29D09F
:1097B000029814220007000F42435719BA69002A81
:1097C00008D0282358434018416A1046FDF7CCF8CA
:1097D000002919D0E01D0022FF30FA300146426115
:1097E000726D05209200C00152191018406C036977
:1097F000002B05D08868212109016118029A984739
:109800000020FEBD0320FEBD0020B86103460246D5
:109810002846029900F013FEF2E7F8B50525ED01A0
:1098200006464719786D800080194019046C002C99
:1098300014D0304600F0DCFC0146E01DFF30FA3069
:10984000C160796D4068890089194919496CCA68F5
:1098500083218900611890470020F8BD0320F8BDDE
:10986000F8B5204D0446297800F018FC287814211A
:109870000007000F484300260019868469782046B7
:1098800000F00CFC687814210007000F4843001911
:10989000FF3041308684A978204600F0FFFBA8788D
:1098A00014210007000F4843001986844D01C68427
:1098B0006719786D800000194019016C00290FD0DC
:1098C000406C40688047786D800000194019006C3A
:1098D00000F0F6FF786D8000001940190664FE6301
:1098E0000020F8BD3C01002012200880004870478D
:1098F00034000020052110B5C9014218526D9200B4
:1099000010184018016C00290FD0436C002B0AD0AE
:10991000CC1DFF34FA342078FF2804D09B6862788D
:109920009847FF202070002010BD032010BD0000CC
:109930000A210180004870474001002070B50646AA
:109940008221104800F032FB054601210D4800F04D
:109950002DFB044681210B4800F028FB002D01D08F
:109960000121A9714021002C02D021710A0A6271E3
:10997000002802D00171090A41714320308001485A
:1099800070BD00004C01002070B5064682211048D1
:1099900000F00CFB054601210D4800F007FB0446D2
:1099A00081210B4800F002FB002D01D01021A9718C
:1099B00001214902002C02D021710A0A627100289B
:1099C00002D00171090A417143203080004870BD06
:1099D0004C01002070B506468221104800F0E6FADE
:1099E000054601210D4800F0E1FA044681210B48AB
:1099F00000F0DCFA002D01D00121A9714021002CDA
:109A000002D021710A0A6271002802D00171090A8C
:109A1000417143203080014870BD00004C0100209E
:109A2000F8B504468720800000F04CFF0525ED01C5
:109A30006719064600285DD087218900FCF7C3FF1F
:109A4000796D28468900091908180664FE63207C90
:109A5000414D002856D0402302222978204600F0AC
:109A600027FC287814220007000F50430121001919
:109A70008184402302226978204600F019FC69782D
:109A800014220907090F51430919FF3101204131FF
:109A90008884A9780907090F51430919C884082344
:109AA0000322A978204600F003FCA97814220907B4
:109AB000090F514301200919FF368884FF36002021
:109AC00002367060796D5001890009190818406CE0
:109AD0000068804700207061B0617268002A0FD072
:109AE000207C002835D040236978204600F0EDFB2B
:109AF0000020F8BD796D0020890009194919086412
:109B00000220F8BD01235B0202222978204600F0E2
:109B1000CFFB297814220907090F514301200919A5
:109B20008884430202226978204600F0C1FB6978EC
:109B300014220907090F51430919FF31012041314E
:109B40008884A87810210007000F50430019C184B1
:109B5000A5E701235B02C7E73C01002010B50A46D8
:109B6000024903A000F04CFA004810BDB00A0020E2
:109B700043444320496E746572666163650000006A
:109B800004200880004870473000002010B50A46C5
:109B9000024903A000F034FA004810BDB00A0020CA
:109BA00057654163742053747564696F0000000049
:109BB00010B50A46024903A000F022FA004810BD81
:109BC000B00A00205553423243414E563120436F74
:109BD0006D506F7274000000052110B5C901421864
:109BE000526D920012185118096C00290DD0027C98
:109BF0000A4C002A0BD0FF31FF3102314A68402362
:109C0000617800F062FB002010BD032010BDFF3121
:109C1000FF31023101235B024A68F1E73C01002079
:109C2000002909D00522D20183185B6D9B0018180A
:109C300080184164002070470320704770B51A20D7
:109C400008800C480C4D4369016980690C180AD0E2
:109C50000422A91C1846FFF75BFA294608220A319C
:109C60002046FFF755FA05480322A91CFFF750FAD2
:109C7000014870BD8075FF1F480000200000A0AAA9
:109C80000522D20183185B6D9B0018188018006CA8
:109C9000002805D0FF30FF300230416000207047BF
:109CA0000320704710B50523DB01C418646DA400C0
:109CB0002018C018006C002806D0FF30FF3002309A
:109CC00002618160002010BD032010BDFEB50C466E
:109CD00005210746C9014018426D6B469200D21912
:109CE000511800220E6C1A709A801546002E06D06C
:109CF000237860221A402BD0202A45D101E003208E
:109D0000FEBDE288002A1CD018060AD5496C60788E
:109D10008B6831469847E288072A00D907223146E6
:109D20002BE0F11DFF316278FA310A70E08840289B
:109D300000D34020C2B24A703146384600F081F864
:109D400027E0496C60788B6800222146984720E024
:109D50006178002906D001291BD00A2908D00B29D7
:109D600012D10EE0007F03280ED1022201A904E0E7
:109D7000007F032808D101226946384600F07EF8AA
:109D800007E0007F032804D02146384600F04FF852
:109D900003252846FEBD000070B50521C901421803
:109DA000526D9200121851180A6C0121002A06D037
:109DB000FF32FF3202325369002B02D011E0032040
:109DC00070BD0121516108491425097814690B07F8
:109DD0001B0F6B431B189C611369926800F02FFBEB
:109DE0000021084670BD00003C01002010B505228E
:109DF0000024D2018218926B52689047002800D04C
:109E00000324204610BD00207047002070471346F1
:109E100010B50A46002100F058FA002010BD134684
:109E200010B50A46002100F00AFB002010BD10B555
:109E30000446802100F0DCFA0021204600F0D8FA28
:109E400010BD10B505240323E40104196361C31D8B
:109E5000F9339A65DA6513460A46002100F035FAAF
:109E6000002010BD052110B5CA01821851610023E0
:109E70001A46194600F029FA002010BD10B5052435
:109E80000223E4010419636182611346C2610A4638
:109E9000002100F0D4FA002010BD052210B50421E5
:109EA000D2018218516100231A46194600F0C7FA00
:109EB000002010BDF8B50D46044600206946088014
:109EC00069880520C0010A0A2018062A42D006DC4B
:109ED000012A0FD0022A14D0032A5ED11EE0072ADD
:109EE00041D00F2A59D1406BC26921E0207C6946DC
:109EF000904736E0406B227C0368694610469847DD
:109F00002FE0217C0226806B002905D0C16A6846BB
:109F100088470146467030E0816AF8E7C9B20B0015
:109F200001F070FA0604090C0F12153B406B4268F1
:109F3000002ADBD131E0406B8268F9E7406BC268F0
:109F4000F6E7406B0269F3E7406B4269F0E7406B6C
:109F50008269EDE7217C00291FD1806B416B684647
:109F60008847014609E0217C002916D1806B016BEE
:109F700068468847072201464270EA88002A11D0C5
:109F800068460088002808D0824200D90246684608
:109F900002802046FFF772FFF8BD29462046FFF7F2
:109FA00046FFF8BD2046FFF778FFF8BD78B50E46AE
:109FB000C17883780A02017800251A4304468A4250
:109FC00015D96A4611800AE0694600F012F8417816
:109FD000052904D181780546B14208D00025E178F1
:109FE000A278090211436A4612889142ECD82846A9
:109FF00078BD0A880378D2180A800178081870475B
:10A0000070B5002300281DD00025044602E06D1C19
:10A01000EDB2641C2678002EF9D16C00A41C1480CB
:10A020001278CA5403225B1CCA5400245B1C06E04D
:10A03000CA545B1CDAB28C54521CD3B2401C027856
:10A04000002AF5D170BD01460020002904D0012965
:10A0500001D0022901D0032070470120704710B5BC
:10A0600000280FD00523DB010024C3189C635C6427
:10A070001C65002900D0596301211977027000F096
:10A08000BFF810BD032010BD052210B5D201801805
:10A09000806CFDF7C2FDFFF7D6FF10BD052210B59D
:10A0A000D2018018806CFDF796FDFFF7CCFF10BD44
:10A0B000F8B507460520C00100253C1813460029C5
:10A0C00003D0207F03283FD048E03E466069143625
:10A0D000022831D1B168F068814206D90A1A1946BE
:10A0E0003846B260FFF79BFE0DE0884212D17168DE
:10A0F00081420FD3A06981420CD20022114638461A
:10A10000FFF78DFEA56100231A461946384600F078
:10A11000DCF811E0207F032807D1A06BC16800297B
:10A1200003D06565C168384688478021384600F00D
:10A130005FF93846FFF796FE152040013818017880
:10A1400000290BD0057009E0A06B4269002A05D0F8
:10A150006565426938469047002800D10020F8BD67
:10A16000F8B506460520C00100233418174600291B
:10A1700003D0207F03282FD038E03546FF356069B3
:10A180005535032832D1A968E868814209D90A1AED
:10A19000AA60824200D3024639463046FFF737FEB6
:10A1A00024E0152040013018807AC006C00E03D08C
:10A1B000012802D0022800D00023207F032807D1E5
:10A1C000A06B0169002903D06365016930468847A7
:10A1D0003046FFF762FE09E0A06B8269002A05D0D5
:10A1E0006365826930469047002800D10020F8BDA1
:10A1F000052210B5D2018018806CFDF745FF10BD17
:10A2000010B520490522C865D20184181E491F488F
:10A21000A16408600820087148710220C871487262
:10A2200000208872C872087348738873C8730874F2
:10A230000846FEF751F8002801D0FCF7F6FC002292
:10A2400018231146A06CFDF78FFC582300228021B3
:10A25000A06CFDF789FCC02300228121A06CFDF7D2
:10A2600083FCFF23113300220121A06CFDF77CFC4D
:10A27000FF23013300228221A06CFDF775FC002032
:10A2800010BD000074070020F4040020005C0040B2
:10A29000CA094906490E282359431B01C018806C7E
:10A2A0000818002A01D0807D7047FF304130FAE75E
:10A2B00010B51C460523DB01C0181346806C2246EE
:10A2C000FDF7EBFEFFF7BFFE10BD10B50524E4015E
:10A2D0000019806CFDF708FFFFF7B5FE10BDF8B55B
:10A2E0000446052000260125C00121180D774E6186
:10A2F000152266605201A2184E621670886B002803
:10A3000008D04268002A05D0002120469047002846
:10A3100000D003260022402311462046FFF7C8FF45
:10A32000FF20653005534027001F07513B460022A0
:10A3300080212046FFF7BCFFA58430462762F8BD88
:10A340000521C9014018017F042901D1417F01770E
:10A3500000207047052110B5C90141180A7F032A62
:10A3600006D1896B002903D0C969002900D088472C
:10A37000002010BD017400207047052210B5D201E5
:10A380008018806CFEF766F8FFF75DFE10BD0000D8
:10A3900070B5054615482818044600F05AF80520FF
:10A3A0000121C00128184161018E81611520400101
:10A3B0002818807AC106C90E09D001290CD00229BB
:10A3C0000FD0C109C901284600F012F870BD21461E
:10A3D000284600F0DBF870BD2146284600F025FA3B
:10A3E00070BD2146284600F064F970BDAA02000045
:10A3F000052210B5D2018018806CFDF788FEFFF7AA
:10A4000022FE10BD052110B5C9014018806CFEF771
:10A410003FF8FFF718FE10BD052110B5C90140181F
:10A42000806CFEF74AF8FFF70EFE10BD0521C9014A
:10A430004018017F4177042101770020704710B553
:10A440000524E4010019806CFDF78BFEFFF7FBFD8E
:10A4500010BD70B5054608782870487868708C1C67
:10A460002046FFF7A0F86880A01C0446FFF79BF881
:10A47000A880A01CFFF797F8E88070BD38B50022CF
:10A480006B461A80002913D00522D2018418A163DB
:10A49000616D890008188018806BC16A002902D09C
:10A4A000184688472065A06D401CA065002038BD77
:10A4B000032038BD05230246DB01D3189B6B002027
:10A4C000002B02D01B68104618477047F3B581B0C7
:10A4D000044602982A4E817800253170012905D959
:10A4E00020460299FFF7A3FC0320FEBD0520C00112
:10A4F0002718387F02280CD003281CD02046029948
:10A50000FFF795FC31782046FFF770FC03252846BD
:10A51000FEBD002930D020466160FFF7CBFF05006B
:10A5200004D020460299FFF782FC1CE02046FFF78A
:10A53000B4FC032018E0002918D0606888421BD0C2
:10A54000C1B22046FFF752FC317820466160FFF728
:10A55000B1FF050010D020460299FFF768FC217971
:10A560002046FFF743FC02203877D0E702203877F7
:10A5700020466160FFF73AFC2046FFF78EFCC6E7F5
:10A580003801002010B5FFF73DFF10BDF8B50B787E
:10A59000602213400522D20100268518002B0BD023
:10A5A000202B01D0402B79D16B6D9B001B189A1882
:10A5B000926B926890472FE04C780022230000F0C5
:10A5C00021FF0A40666D566D09066D2D296DFFF756
:10A5D00071FC65E004468888002819D1C8880028E5
:10A5E00016D14888802813D24706287F7F0E03287B
:10A5F0000ED0AF7739462046FFF7BFFE2046FFF763
:10A600004CFC002F01D0022000E00120287747E019
:10A61000204643E0FFF75AFF064641E0CB88012B76
:10A620003CD12B7F012B04D0022B02D0032B35D140
:10A6300004E0826001220146083115E00122011D7B
:10A6400012E02B7F012B03D0022B01D0032B25D14D
:10A65000CB88022B22D1C260696A002901D0022175
:10A66000C160014602220C31FFF708FC18E04A885D
:10A67000012A02D0022A03D010E00121696215E00C
:10A6800089881522090A5201821811700EE02B7F69
:10A69000012B07D0022B05D0032B03D0FFF7C7FBFC
:10A6A0003046F8BD49880129FAD16A62FFF7F5FB07
:10A6B000F6E7F8B50646002000900F460C790878BA
:10A6C000602108400521C901751800280CD02028F8
:10A6D00001D040286ED121463046FFF794FBFF2879
:10A6E00001D000283ED09EE07878002844D0012890
:10A6F00026D003285ED1287F022802D0032859D112
:10A700000CE0002C56D0802C54D021463046FFF768
:10A710006FFE80213046FFF76BFE84E078880028CA
:10A720000AD1002C08D0802C06D0F888002803D14C
:10A7300021463046FFF75CFE3046FFF7AEFB72E085
:10A74000287F0228DDD0032869D1788800286AD1C3
:10A75000600603D021463046FFF796FC3046FFF7EF
:10A760009CFBB8E76865A86B8268002A5BD0394615
:10A7700030469047009056E0287F022802D00328F8
:10A780004DD118E0002C01D0802C48D1E00906D032
:10A790006006400E142148438119143106E060061A
:10A7A000400E142148438119FF3155310020022207
:10A7B00008602EE033E0E0090DD02007000F1421DF
:10A7C00048438019808C002829D06006400E4843F9
:10A7D000851914350FE02007000F14214843801914
:10A7E000FF304130808C002819D06006400E48436D
:10A7F0008519FF355535002C0FD0802C0DD0214602
:10A800003046FFF745FD002807D0012002222946E7
:10A8100028603046FFF732FB05E00020F6E73946B6
:10A820003046FFF704FB0098F8BDF8B507460D4623
:10A83000087800246021084003D0202801D0402857
:10A8400028D10520C0013E18307F012803D00228FE
:10A8500001D003281ED1A888C1B201291AD8C1B2DB
:10A860003846FFF7D2FAFF280CD000280AD1B16B86
:10A870008A68002A06D070658A682946384690475B
:10A88000044600E00324E888204307D13846FFF758
:10A8900004FB03E029463846FFF7C9FA2046F8BD15
:10A8A00010B50446FFF7B8FD0520C0012018806BE5
:10A8B000002803D04268217920469047002010BD2F
:10A8C0007047000000487047D4020020F0B5002215
:10A8D00094460A78940003599D4A1340CA78002A86
:10A8E00067D0012A6CD0022A03D0032A64D0012247
:10A8F0009446984A134303510D78AE008459964B01
:10A900001C402C4314438451934C0D7B3034002D58
:10A9100059D0CD78022D0D787DD0AE0085598F4F5E
:10A920003D40154385510D788D4EED00AD192E68D3
:10A93000360C36042E600D78894EED00AD192E6868
:10A940000F89BF08BF003E432E600D78844EED0096
:10A95000AD196E68360C36046E600D78804EED00D1
:10A96000AF197D684E89B608B60035437D604D78D5
:10A97000002D0D787ED0AE0085596D0404D5855923
:10A98000784F1D403D4385510D78AE0085596D06C9
:10A9900005D585591D406F4B40331D438551CB78FC
:10A9A000012B0B7867D09D0043592340202463403E
:10A9B000C2E00122520201E003225202134398E74F
:10A9C00001229202FAE74D78002D29D00D78644FCC
:10A9D000ED00ED192E68360C36042E600D78ED0072
:10A9E000EF193D68CE88B608B60035433D600D7856
:10A9F000AE0085596D0605D585591D40554B403330
:10AA00001D438551CB78012B06D009788B00C158A6
:10AA10002140202450E065E009788B00C15891E086
:10AA20000C78E5004E4C2D196E68360C36046E60BD
:10AA30000D78ED002D196E68CF88BF08BF003E432A
:10AA40006E600D78ED002D196E68B601B6096E6066
:10AA50000E693E2E10D97509F60600D16D1E0E78CE
:10AA6000F60037197C68AD060126F60735432C43FE
:10AA70007C600EE03CE05CE0002E1FD07508F6071D
:10AA800000D06D1C0E78F60034196668AD062E43B2
:10AA900066600C78A5004459640404D544591C40F0
:10AAA000304B1C4344510978002910D08B00C15809
:10AAB0002D4C214001246403614044E00D78ED00F9
:10AAC0002C1965680126F60735436560E1E70168E2
:10AAD000254B194001231B0359405B00594011438A
:10AAE000016032E0AE008559204F1D403D4319E71B
:10AAF000AE0085596D0404D585591A4F1D403D435C
:10AB000085510D78AE0085596D0605D585591D40D6
:10AB1000104B40331D4385510B789D004359124E15
:10AB2000334001263603734076007340134343518C
:10AB300072E79D00435923401343435109788B002A
:10AB4000C158094C21401143C1506046F0BD00007E
:10AB50008F89FF07808000008F8FFF078F8EFF0790
:10AB60000098004080C000008FBFFF078081000078
:10AB7000F0B50A780F7B364B4E78364D364C920046
:10AB8000002F22D0002E865840D0760403D5865858
:10AB900026402E4386500A7896008259520605D5E3
:10ABA00082592B4F224040373A4382510A7896000F
:10ABB000825922402A4382510A7894000259264D34
:10ABC00030352A401A43025117E0002E0ED0855826
:10ABD0006D0605D5855825401D4C403425438550CC
:10ABE00009788A0081581C4C30340AE08658760473
:10ABF00003D5865826402E43865009788A0081580E
:10AC0000164C2140194381500020F0BD760403D535
:10AC1000865826402E4386500A789500425952069F
:10AC200005D542590A4E22404036324342510A78F5
:10AC3000950042592240064C4034224342510A7842
:10AC400094000259054D2A401A430251C8E70000FA
:10AC50008080000080C000008F8FFF078FBFFF073C
:10AC6000816D0122D2031143816500207047816DFF
:10AC70000122D203914381650020704700B503464D
:10AC800001201864186C4008400018640021184620
:10AC900000F044FB0021596400BD0000024A016C31
:10ACA000914301640020704780BF000030B50A7BEB
:10ACB000002A2FD14A78184D002A184B0A7814D050
:10ACC00094000259520605D502592A40134D4035C9
:10ACD0002A430251CA78012A1CD009788A00815877
:10ACE0000D4C30342140202411E0940002595204CC
:10ACF00004D502592A400A4D2A43025109788A0094
:10AD00008158084C214001242403614064006140C3
:10AD100019438150002030BD8F8FFF0780800000D5
:10AD200080C000008FBFFF0710B54A780978094B33
:10AD30008900002A425803D0074C2240102403E027
:10AD4000064C22400124240362401A434250002052
:10AD500010BD000080800000BF8FFF078FBFFF077E
:10AD6000F8B54B780C460746FE4A087BD607012B00
:10AD700008D0002873D0E078022871D0012870D064
:10AD80000120F8BDA56921698D4200D90D46002832
:10AD900017D0E0780228206A28D0401B2062207853
:10ADA0008100795849067DD5C100EF4809184A68E5
:10ADB00092B24A602178C900081841682A041143F8
:10ADC00032E1ABB2E2883846616900F0C7FA207818
:10ADD000C100E54809180A6892B20A602178C900E2
:10ADE000081801682A041143016024E188427BD9D4
:10ADF0002078810078581040DC4A10437850206A4F
:10AE0000401B2062207881007958490661786CD512
:10AE1000002902D001292BD037E0C100D2480918FF
:10AE20004A68920192094A603E2D0AD96909EA06E8
:10AE300000D1491E2278D200101842688906314399
:10AE40000AE0002D0ED06908EA0700D0491C2278DC
:10AE5000D2001018426889060A43426015E00FE1EB
:10AE600038E1BDE12178C9000818416831430BE0A1
:10AE7000C100BD4809184A6892B24A602178C900E9
:10AE8000081841682A04114341606289ABB2384610
:10AE9000616900F063FA6069401960612169206AA4
:10AEA000884200E037E001D9401B01E00546002060
:10AEB00020626078002802D001282BD038E020786A
:10AEC000C100A94809180A68920192090A603E2D3A
:10AED0000CD96909EA0600D1491E2278D20010185F
:10AEE0000268890631430CE0B1E023E0002D0BD06D
:10AEF0006908EA0700D0491C2278D20010180268BD
:10AF000089060A43026013E02178C9000818016825
:10AF100031430CE02078C100934809180A6892B2C6
:10AF20000A602178C900081801682A0411430160E9
:10AF300022897BE0002902D0012928D034E0C10019
:10AF4000894809180A68920192090A603E2D0AD9B7
:10AF50006909EA0600D1491E2278D2001018026859
:10AF6000890631430AE0002D0BD06908EA0700D0BA
:10AF7000491C2278D2001018026889060A43026030
:10AF800012E02178C9000818016831430BE0C100C4
:10AF9000754809180A6892B20A602178C900081831
:10AFA00001682A04114301602289ABB23846616905
:10AFB00000F0D4F96069401960612169206A884213
:10AFC00001D9401B01E0054600202062607800287E
:10AFD00002D0012839D028E02078C1006248091841
:10AFE0004A68920192094A603E2D0AD96909EA0627
:10AFF00000D1491E2278D2001018426889063143D8
:10B000000AE0002D0BD06908EA0700D0491C22781D
:10B01000D2001018426889060A43426005E0217890
:10B02000C90008184168314341606289ABB23846B3
:10B03000616900F093F9207881007858494A3032EC
:10B04000104010225040202228E12078ACE62178E0
:10B050008A00B958464B1940464B1943B9502178DC
:10B06000CA004149521813689BB213602278D2007B
:10B0700051180A6803041A430A60228983B2D6E78A
:10B08000A1692069814201D9091A01E0084600211D
:10B09000A1612178CA003449DEE04209C00600D12E
:10B0A000521E2078C00040184168920632430EE0DC
:10B0B0002078C00040184168314309E04208C007C9
:10B0C00000D0521C2078C0004018416892061143FD
:10B0D0004160DAE0002B61D12078C10022480918D4
:10B0E0000B689B019B090B6021693E290AD94B091A
:10B0F000C90600D15B1E2178C90009180D689B069E
:10B1000033430AE0002910D04B08C90700D05B1C6C
:10B110002178C90009180D689B061D430D606178F0
:10B12000002909D001294DD038E02178C90009183B
:10B130000B6833430B60F2E72178C90009184B68AC
:10B140009B019B094B6021693E2915D94B09C90612
:10B1500000D15B1E2178C900081841689B06334363
:10B160003CE000008F8FFF070098004080810000C6
:10B170008F8EFF0780800000002909D04B08C90787
:10B1800000D05B1C2178C900081841689B0625E0A7
:10B190002178C9000818416831434160E0690028FE
:10B1A00073D020788100785880B2430401D54306DB
:10B1B00002D43E4B184268D1785810403C4A1043A4
:10B1C000785062E02178C90009184B689BB24B6047
:10B1D0002178C90008184168238A1B041943DCE759
:10B1E000A1692069814201D9091A01E008460021BC
:10B1F000A161002B49D12178CA002E495218136849
:10B200009B019B0913603E280AD94209C30600D15D
:10B21000521E2378DB005B181D68920632430AE059
:10B22000002810D04208C30700D0521C2378DB004E
:10B230005B181D68920615431D606278002A09D0CC
:10B24000012A15D021E02278D20052181368334326
:10B250001360F2E72278D200521853689B019B09D1
:10B2600053603E2800D918E7002800D026E71FE7E2
:10B270002278D200521853689BB253602278D200D1
:10B2800051184A68000402434A60207881007858C7
:10B29000094A104001221203504052005040044A13
:10B2A000403A104378500020F8BD000040400000B4
:10B2B000C0800000009800408FBFFF07002141645C
:10B2C000014901640020704780BF0000406C704756
:10B2D000F8B5D81C850810489E07B60F17180C46FD
:10B2E000002E00D06D1E002D07D038682146FBF7D8
:10B2F00086FB241D6D1E3F1DF5E7002E0AD0386821
:10B30000EA000146D1402170641C6D1C761E360493
:10B31000360CF5D1F8BD000000980040002903D09C
:10B32000012905D001207047016C4900490803E05C
:10B33000016C0122D20711430164002070470029EB
:10B3400001D18021C16400207047000010B502487F
:10B35000FCF71EFF10BD0000F4040020F8B5D81C57
:10B3600085089E07B60F0C4600D06D1E0C481718B6
:10B3700005E02046FBF739FB01C7241D6D1E002D9B
:10B38000F7D1002E0BD000202178EA009140641CF8
:10B390006D1C761E08433604360CF5D13860F8BDB6
:10B3A000009800400FB47CB50C0009AD01D0611EBF
:10B3B00000E0002101910090074B6A462946089859
:10B3C00000F060F8002C02D0009A002111707CBCC3
:10B3D00008BC04B018470000F9B800080FB410B555
:10B3E00004A9074B02AA039800F04CF8044602A9EE
:10B3F000002000F08CFA204610BC08BC04B01847AE
:10B400000FB9000830B47446641E2578641CAB4242
:10B4100000D21D46635D5B00E31830BC1847000096
:10B420008307FF22DB0E9A408907090E9940002806
:10B4300008DB830809489B001B18186890430843E1
:10B44000186070470007000F0838830804489B0005
:10B450001B18D86990430843D861704700E400E0A6
:10B4600000ED00E002E008C8121F08C1002AFAD16E
:10B4700070477047002001E001C1121F002AFBD174
:10B4800070470000FFB591B00F460546002606E064
:10B4900025280AD0149A139990476D1C761C287899
:10B4A0000028F5D1304615B0F0BD002400940121EC
:10B4B000F34A029400E004436D1C2B780846203BBD
:10B4C00098401042F7D128782A280ED002222878F6
:10B4D00001463039092915D800990A2359433039D2
:10B4E000401814436D1C0090F1E701CF0090002834
:10B4F00005DA0120400304430098404200900220F6
:10B5000004436D1C28782E2815D104200443687844
:10B510006D1C2A280AD101CF6D1C02900BE0029904
:10B520000A225143303940186D1C02902878014698
:10B5300030390929F3D928786C2810D006DC4C283A
:10B540001AD068280ED06A2817D104E0742813D0C6
:10B550007A2812D110E00120400504430CE00121BB
:10B56000090501E0032109050C436978814203D1F3
:10B570000120000524186D1C6D1C28786E281ED033
:10B580000CDC632831D004DC00288BD0582811D182
:10B59000B2E064287BD069280CD178E073282DD0E4
:10B5A00004DC6F2870D0702804D1A7E075286CD017
:10B5B00078286BD0149A13999047761C62E0600249
:10B5C000400F022807D003280AD0042838680AD080
:10B5D00006603F1D56E03868F11706604160F8E7E5
:10B5E00038680680F5E70670F3E73878694608742E
:10B5F0000020487404A80390012003E038680390F9
:10B600000020C0433F1D61070FD5002101E00199D3
:10B61000491C029A0191914213DA8142F7DB019AA7
:10B620000399895C0029F2D10BE0002101E0019926
:10B63000491C01918142FADB019A0399895C002936
:10B64000F5D101990098139A401A00902146149B55
:10B6500000F03CF901998019461807E00398039916
:10B660000078491C0391149A139990470198401E41
:10B670000190401CF2D12146149B139A009800F0CF
:10B6800015F986196D1C0AE741E033E034E00A2021
:10B690000021049005916002410F022905D001CFDD
:10B6A000C2179446032905D007E0FF1DFF08FF00DD
:10B6B00003CF06E000B2C2179446042902D140B27B
:10B6C000C1178C4600226146944506DA0A460021DD
:10B6D000404291418C462D2102E0210504D52B21C9
:10B6E0006A461176012103E0E10701D02021F7E746
:10B6F000019155E00A200BE0102009E01020049091
:10B7000000210420044308200591029003E0082052
:10B710000021059104906002410F022905D001CF5C
:10B7200000229446032906D006E0FF1DFF08FF0013
:10B7300003CF8C4603E080B2042900D1C0B20021BF
:10B74000019121072CD529780391702906D0049AFC
:10B750001021059B4A401A4305D00EE040216A465D
:10B760001176012108E06146014306D030216A4686
:10B7700011760399517602210191049A0821059BC3
:10B780004A401A430CD16146014301D1610707D5F4
:10B7900030216A461176012101910299491E0291D8
:10B7A0002978582904D037A103910FA90F910DE0F2
:10B7B00039A1F9E76146059B049AFBF729F9039B38
:10B7C0008C469B5C0F9A521E0F9213706146014388
:10B7D000F0D10F9807A9081A20300390600704D50C
:10B7E000012000048443029801E0012002900399A3
:10B7F000884201DD401A00E00020411802900198C3
:10B8000009180098401A0090E00306D42146149BC2
:10B81000139A009800F05AF886190020049008E066
:10B8200006A9085C149A139990470498401C761C4A
:10B83000049001998842F3DBE0030CD52146149B68
:10B84000139A009800F042F8861904E0149A302008
:10B8500013999047761C0299481E02900029F5DC46
:10B8600008E00F980F990078491C0F91149A1399CA
:10B870009047761C0399481E03900029F1DCFAE6F4
:10B8800009280100303132333435363738396162B6
:10B89000636465660000000030313233343536377A
:10B8A000383941424344454600000000F8B504469B
:10B8B00000251E461746880404D405E0394620209A
:10B8C000B0476D1C641EF9D52846F8BDFFB5044687
:10B8D000002581B01E46C80301D5302700E020278F
:10B8E000880404D505E038460399B0476D1C641EF2
:10B8F000F9D5284605B0F0BD4A68002A06D00A6886
:10B90000531C0B6010704868401E486070470A68FE
:10B91000531C0B6010707047F0B587B01421684657
:10B92000FBF751F81A48416B042631434163406BE1
:10B93000052730403F070590012202213846FCF7D9
:10B940000BF8012211463846FCF706F801220421C3
:10B950003846FCF701F802200024012500900294EB
:10B960006946019503943846FBF73CFF0095029425
:10B970006946384601950394FBF734FF0294694603
:10B980003846009601950394FBF72CFF07B0F0BDF5
:10B990000010024010B5054A0349002011605060B4
:10B9A000FCF79AF810BD0000A5A5A5A50000002091
:10B9B00010B50D4986B00B48086004794379827947
:10B9C000C179029103A91CC1C278817800910192CA
:10B9D0004378027805A11048FFF700FD0E4806B035
:10B9E00010BD0000F02F01001402002057654163D4
:10B9F000742053747564696F205625642E25642E57
:10BA000025642E25645F2530327825303278253044
:10BA10003278253032780D00106A0020EFF3108064
:10BA200072B60021054A064B02E09A6080F3108846
:10BA3000091D0429F9D062B67047000000680008AB
:10BA400000ED00E010B51C4C6078012833D11B4894
:10BA5000FBF70DFE01211948FBF767FA1B2189044A
:10BA60001648FBF762FA80211448FBF75EFA134888
:10BA7000FBF747FA002060700146206902F027F8C2
:10BA8000E06900F033FC00226421102000F0C8FCC3
:10BA9000E0610021606902F01AF8A06900F026FC5C
:10BAA00000226821102000F0BBFCA0610448102196
:10BAB000006800F0DFFD10BDC80100202402002056
:10BAC0000C000020F0B53E4F87B07878002874D184
:10BAD0003C4C0025032000026560A0607868E060AF
:10BAE0003878207465743846A574463001886161E1
:10BAF0008178A161C178E1610079206238464030E7
:10BB0000018861628178A162C178E16200790126D1
:10BB10006663A663E56320632046FBF71DFC616A4C
:10BB2000E06A002241432046FBF7DBF92046FBF7A1
:10BB30006AFA0195244806900295039501A9049696
:10BB400005952046FBF783F9002800D0FEE7012089
:10BB5000800701901D48069002950395049605956F
:10BB600001A91848FBF773F9002800D0FEE702226C
:10BB70000023114613480095FBF798F90022012194
:10BB80001048FBF7C5F81B21002289040D48FBF77C
:10BB9000BFF8072280210B48FBF7BAF801210022E9
:10BBA00049020848FBF7B4F80648FBF74AFD084885
:10BBB0007E700221006800F05DFD07B0F0BD00005E
:10BBC000C801002024020020FF070000FFFFFF1F24
:10BBD0000C00002010B51B4919480860042000F033
:10BBE00073F8022000F0FAF8002000F06FF900204E
:10BBF000154C024660700421102001F02EFF2061D8
:10BC000000220421102001F028FF6061002264213D
:10BC1000102000F005FCE06100226821102000F0F7
:10BC2000FFFBA061094A0021094800F0A7FD074A6F
:10BC3000206224320021074800F0A0FD606210BDA0
:10BC40000064004024020020C801002090E70008A2
:10BC5000C1BF0008BDBF0008014840787047000020
:10BC6000C8010020114C0525A4B02D0732226946D9
:10BC7000606902F06FF8012801D0012210E0009AFB
:10BC800001A81146403101F0C9F9002803DD81B255
:10BC900001A800F0D1F90099A06900F057FB00223B
:10BCA00001212846FBF758FEE0E70000C80100200C
:10BCB00004494A78012A03D0002800D001200870E6
:10BCC00070470000C8010020F0B5284949780129D3
:10BCD0003BD026490127052646311D22D1241E25A9
:10BCE0000300FFF78FFB0E0A0D18252C2E33353B72
:10BCF000231C1A100832322000E01920088021E0AD
:10BD00001920088015E0082008801B208870C420B6
:10BD1000C8701C2028E00E8014E00420EEE70E809E
:10BD2000132088708B20C87014201DE00320E5E7E5
:10BD30000E800E2088706820C8700F2014E002204A
:10BD4000DCE70F808A70CC700D71F0BD0F80F0E7DA
:10BD500009200F8088704122CA7005E00F800620FC
:10BD600088703420C87007200871F0BDC801002019
:10BD70000B4A53780022D243012B05D0022803D36B
:10BD8000022901D3802901D910467047044A0223B1
:10BD9000463213804B1E9370D07011710020704793
:10BDA000C801002010B50C4B5C780023DB43012C4C
:10BDB00007D0002805D0022903D3022A01D3802A04
:10BDC00001D9184610BD044B46331880501E987098
:10BDD000D9701A71002010BDC801002070B5184933
:10BDE0004978012919D01649022540310724012834
:10BDF0000DD001220823022810D00426032813D0D6
:10BE0000032404280A8016D08D70CB7004E00D80C6
:10BE1000062088701620C8700C7170BD0A808C7066
:10BE20001520C8700B7170BD0A808E700E20C8700E
:10BE30000520087170BD8C700A20C8700E7170BD2D
:10BE4000C80100200E4A53780022D243012B07D0AC
:10BE5000002805D0002903D0202801D8102901D9B5
:10BE600010467047064A012340321380012901D948
:10BE70004B1E00E001239370D070117100207047B9
:10BE8000C801002010B5104B5C780023DB43012C67
:10BE90000BD0002809D0002907D0002A05D020287F
:10BEA00003D8202901D8102A01D9184610BD064B05
:10BEB00040331880012A01D9501E00E001209870FB
:10BEC000D9701A71002010BDC801002004494A78B9
:10BED000012A03D0002800D00220486070470000EB
:10BEE000C801002031B50F4C206901F068FB002823
:10BEF0000AD0EFF3058000280CD000231A466946CB
:10BF0000206901F0A6FE0BE0042000F0C9F8002033
:10BF1000C04338BD00231A466946206901F00DFE72
:10BF2000012038BDC8010020214C05258CB02D070B
:10BF300032220BA9206901F00DFF012801D0012256
:10BF40001AE069461B48FBF7A5F81A48FBF746F9C3
:10BF5000002802D00598002813D00598012822D087
:10BF6000206901F02CFB00281DD0012300220BA921
:10BF7000206901F0E2FD002202212846FBF7ECFCDB
:10BF8000D6E70B9A0B4811464031FAF73CFF0028E0
:10BF900004D00B99E06900F0D9F9C9E70B99E06981
:10BFA00000F0D4F9E7E7012103A000F045F8F5E738
:10BFB000C80100202402002007000000FFF752FE05
:10BFC000FFF7B2FF10B5184C012060700022042169
:10BFD000102001F042FD606000220821102001F0D5
:10BFE0003CFDA06000228C21102000F019FA206195
:10BFF00000224021102000F013FA0121E06000220D
:10C00000084600F0BBFA6061084A0021084800F0C9
:10C01000B5FB064AA06124320021064800F0AEFBC1
:10C02000E06100F0F1FF10BD64000020D8E60008D8
:10C03000C1D400083DD40008F8B5184C06460D469A
:10C04000206900F0D5F9002824D0606801F0B7FA23
:10C0500000281FD00021206900F000F9009000287E
:10C0600018D02A463146FAF795FC00988030C57200
:10C07000EFF30580002806D000231A466946606861
:10C0800001F0E7FDF8BD00231A466946606801F03B
:10C0900054FDF8BD062000F003F8F8BD6400002050
:10C0A00010B5044608280ED2FBF75CFC064AA10036
:10C0B0005050FBF757FC01460448416001210268DB
:10C0C000A1401143016010BD386A00201802002011
:10C0D00001480068704700001802002000B5030006
:10C0E000FFF790F910090B0D0F11131517191B1DF0
:10C0F0001F2123252729002000BD012000BD02208B
:10C1000000BD032000BD042000BD052000BD0620A9
:10C1100000BD072000BD082000BD0C2000BD102080
:10C1200000BD142000BD182000BD202000BD30201F
:10C1300000BD402000BD0020C04300BD00F051F80C
:10C140000446C83400F04DF8102505263607642251
:10C150000021FF2000F0C6FA002800DDC5B200F083
:10C1600040F8A90708D5A042F1D30446C8340421F9
:10C170003046FBF7E9FBEAE7E9060CD57D21C9006B
:10C180006118884201D3044607E021460A318842FB
:10C19000DDD3002202E0A806D9D5012204213046D1
:10C1A000FBF7DAFBD3E7FFF739FCFBF7E9FBFDF719
:10C1B00037FAFCF7DDFF00F01FF8FCF7BFFF00F0D7
:10C1C0002FF8FEE710B5EFF30581002902D0052412
:10C1D000E44304E00024002801D001F0FDFA2046E9
:10C1E00010BD10B5EFF30580002802D002F05EF814
:10C1F00010BD02F055F810BDEFF30580002802D005
:10C200000520C043704705480168002902D000207E
:10C21000C0437047012101600020704710010020D9
:10C2200010B5EFF30580002802D00520C04310BDF3
:10C2300008480168012902D00020C04310BD06490A
:10C24000CA691202120ACA610221016001F04CFBA4
:10C25000002010BD1001002000ED00E070B50028A6
:10C2600008D0026A002504461F4E3046904300283D
:10C2700002D036E0002534E0EFF3058000281BD023
:10C2800000292ED100221146606801F0E4FD01284A
:10C2900027D1206A864324D1FAF730FB0646204690
:10C2A000FAF744FC050003D12046FAF7B1FC054635
:10C2B0003046FAF727FB14E0606801F008FE012819
:10C2C0000FD1206A86430CD101F0D0F92046FAF74D
:10C2D0002DFC050003D12046FAF79AFC054601F033
